:020000020000FC
:105F0000FFC603E0502E089522242FBE0FEF0DBFD1
:105F100014E01EBFCEE0D1E0EAE3FFE527E03591D3
:105F200039932A95E1F7C017D1072992E0F307E8E2
:105F300004B909E005B94AD651C0FAFE0101B932E7
:105F40001C00349908C024B825B880E88065FAECB4
:105F5000E3E50C94003CBED109F008950AD6802FE9
:105F60008F779091A70198278093A70194FF07C08E
:105F70000F7E24D607E498D6F8D596D696D190FF12
:105F800007C008E491D600E080FF01E08DD68DD1F6
:105F90008670843031F44BD502E486D6E4D577D3CD
:105FA00086D60895022003310E320D33094207468A
:105FB00003470B4D0152055305570462006301640A
:105FC0000471057815A009A109A207A316A409A5C3
:105FD00010C008C131C217D011D10000B2DF5ED6A7
:105FE000E9F360D612E236D105E401C001E45ED6E1
:105FF000F5CF28D1BED50670043011F018D5F6CFF4
:106000009FD581D49FD51DD59BD55CD4EFCF1AD118
:1060100061D121F406E014E04ED1E0CFECEAF1E0EA
:1060200048D147D146D1E2CF36D10CD15092AB0105
:106030006092AA017092A901D9CF34D6102F32D61E
:10604000202F00D1ABD1CACFFDD0F1D4E7CFFAD009
:106050004AD18FD50670043021F472D554D459E05A
:10606000D3D5BCCF70CF19D16394ECD007D2B6CFC3
:10607000E9D018E008E01FD1B1CF0FD16394E2D08E
:1060800016D3ACCFDFD000E00FD6B0CF0BD6102F99
:10609000D9D03ED1A3CFD6D026D198D558E0B4D50B
:1060A000E7E2F1E020E070D585D401E006D684D4A3
:1060B000CBD404E102D600E02092A801B8D496CF58
:1060C000ECE2F1E01BE7EED501931A95E1F7BAD0C7
:1060D0008DCFE8D5A0E0E6D5902FE4D5802FB2D0C3
:1060E00006E485CF88E0DED58A95E9F7ABD0DFD02E
:1060F00075CFA8D00BD011F0DAD001C0D6D05AD4C9
:1061000006E0DBD562D47DD5F0D068CF34D43497A7
:10611000019111910E7F1F700E531040089592D07F
:1061200013E27DD413E37BD44DD446D480D45ECF28
:1061300089D067D500E875D411E300E873D413E380
:1061400000E870D413E300E86DD41270D9F34ECF99
:10615000A9D5B02EA7D5602F75D05B2D55D546CFCC
:10616000A1D5B02E9FD5402F50E09CD5002309F437
:1061700051E098D5602F413308F036CFE8EBF1E0DD
:1061800032D5BB2071F44F938DD50193485010F058
:10619000D9F788D54F9156D0F2904FD54423E1F7E7
:1061A0000EC050D04F9349D5E1924423E1F74F916F
:1061B00002917AD5485018F0D9F70AEA75D517D563
:1061C00015CF40D08FEF9FEF25B1287048E01A9A85
:1061D00035B13870231719F04A9511F407CF00C074
:1061E00004E20A95F1F7232F019789F760D0F6CEE4
:1061F00059D5402F27D056D51FEF00FF2F9800FD0F
:106200002F9A34D54A9521F006951695B1F7F3CF1C
:10621000EDCE48D5402F46D5502F44D5602F12D013
:1062200052FD05C051FFDFD451FDDBD4517050FD4C
:1062300039D5F02E02D50E2D37D54423C1F754FFA2
:10624000D6D4D4CE2FD52ED5003219F00F910F9180
:10625000CBCE2BC09F918F91682F792FFC01E11B32
:10626000F209EE0FFF1F1591610F721D1591112399
:1062700031F0011720F0B9F76F937F9308958F9352
:106280009F930895FF91EF91EF93FF93E00FF21D1D
:10629000EE0FFF1F089513E001C015E0C5E0D0E048
:1062A00001D509931A95E1F7089501E4FFC406E4C6
:1062B000FDC40291F9C4E6DF0591F6D41A95E1F721
:1062C000F6D40895AA55AA464156524E4F4344412A
:1062D00010E003C011E001C012E02091110121176C
:1062E000089500E003C001E001C002E00093110145
:1062F000089502620270027A027B028102820284A5
:106300000286028702A703A802A902AA02B300001C
:10631000012F12E19FDFCBDFCACF00E01AC006E0F9
:1063200018C000EC1BC000E819C009E012C008E06A
:1063300010C008EC13C001E00CC015D40FC01BD373
:106340000AE007C00BE005C00CE003C00DE001C08F
:1063500003E0EEE0F1E0E00FF21D0081A5D4A5CF4F
:106360000162037002810282028606880289028A23
:10637000028B07A009A104A202A302A402A502A6FF
:1063800012AB00AC00AD00AE01AF04B002B104B27C
:1063900002B402B502B602B702B80000012F11E242
:1063A00059DF85CF00E058D0089506E055C009E0D8
:1063B00053C008E051C0022F00950093100101E086
:1063C0004BC001E949C002E947C003E945C02223A7
:1063D00011F420986ACF2898209A67CF2F93C1D3C1
:1063E0002F911F77222309F01068E6D35ECFB9D32F
:1063F0001061E2D35ACF06E12FC005E12DC008E1BC
:106400002BC007E129C02F93CBD3D0D3AAD32F9190
:10641000322F3295369537701C7F132B220F220FA7
:10642000220F0370022BC8D340CF3FCF01E114D01D
:1064300020E0AAC302E110C003E10ED021E0A4C312
:1064400004E10AC00AE108C009E106C00DE104C088
:106450000CE102C00BE100C0EEE0F1E0E00FF21D44
:10646000208323CF012035221A30019007A011B0DC
:106470002BB10BB211B303B402B50000052D003BE4
:1064800028F426DF91F0003981F002C025DF61F0A9
:10649000052D0F6E003A11F407E006D407E004D48E
:1064A0006A94B1F704D40895ACD3052D16E2D2DE78
:1064B000FECE48D3A8D3892D982D02D3882029F564
:1064C000092D0036C8F4003268F4023018F00B5180
:1064D000E0F001C00B5FECEAF1E0E00FF21DEAD260
:1064E000008117C00F3521F00052ECE2F1E00BC043
:1064F000E1D20091B3010DC07091A601772329F07C
:106500000056ECE4F1E096D011F0E1D202C0D2D214
:1065100000E0CAD39FD091F613D389C0B8D1B09010
:10652000140171D3182D9DD21B2D1D5FB7D2192DCB
:1065300098D21B2D1E5FB2D211E093D21B2DAED28A
:106540001B2D1F5FAED2B0D385D061F7ADD16FC028
:106550009FCF292D2F700ED39AD07CD0D1F767C052
:1065600052D307D0032FA0D3022F9ED373D0C9F7E5
:106570005EC000D030E020E0182D092D40E24ED35F
:10658000089502E04ED26CD057E03ED30091140142
:106590000F31A1F051E027D34AE04FD344E1062D5B
:1065A000013009F440E149D30E2D7ED346D30E2DA0
:1065B0007BD359D099F71BD324D339C051E005D0F0
:1065C00004D051D0E1F71DD332C00DD348E035D30C
:1065D0000E2D6AD30CD3089503E023D241D012E3E9
:1065E0001ED213E31CD260D347D0C9F720C004E009
:1065F00018D214E019191370110F110F12631F93A1
:106600000ED21F9111600BD24FD324D091F70FC03F
:1066100003E0902EECCF02E301C006E3B02E08E0C9
:1066200000D2DAD11B2DF5D13FD314D0D1F700E041
:106630003BD33BCE102F069506950695E00FF21D35
:10664000008121E011FD24E010FD220F12FD2295B2
:106650000223089501E0900E821C721C6A94089532
:10666000BBD1BDD108959394992079F48394882067
:1066700061F473946A9408959394AED1992029F4A7
:106680008394ADD1882009F473946A9408950F938C
:10669000012F0AD30F9108D3089501203822243006
:1066A000016007A001B049B114B20FB30000FAD2E3
:1066B000052D003B28F40CDE79F0003669F002C0AD
:1066C0000BDE49F0052D0F7E003A09F4EBD2EAD239
:1066D0006A94C1F7089595D2052D12E2BBDD0895A5
:1066E00031D291D2892D982DEBD1882039F5092D01
:1066F0000036D8F4003270F4023018F00B51F0F08C
:1067000001C00B5FECEAF1E0E00FF21DD3D1CAD279
:10671000008319C00F3521F00052ECE3F1E00CC00A
:10672000C9D1C0D20093B3010EC07091A6017723E6
:1067300029F00056E4E7F1E07DDF21F0B3D2102F1D
:10674000D2D101C0B7D186DF81F6B7D1F9D1089592
:106750009ED0B090140157D2182D83D11B2D1D5FF0
:106760009DD1192D7ED11B2D1E5F98D19BD2102F4C
:1067700078D11B2D1F5F92D114E073D11B2D8ED1C8
:1067800012E06FD11B2D8AD11B2D8BD10270E1F746
:1067900061DF11F789D0089595CF84D2202F217021
:1067A000182D092DF3D108958DCF00E13AD13FD0B6
:1067B000982F9A95092F99210095902205C037D0DE
:1067C00090E0980E821C721C4BDF56E01DD20BD25B
:1067D00051E0992339F044E10FEF19D00FEF17D0B2
:1067E0009A95C9F740E16A9419F08A9509F044E155
:1067F0000DD00CD0662011F08823A1F76BE0F7D103
:1068000000D217E3F3D06620D1F608954BD2F02ED4
:10681000009114010F3111F010D208954F9348E008
:106820000CD24F91485011F0E2D1DDD10895809102
:106830009F019091A00196958795089501E1F1D06F
:106840000FDF8091A10104C08091A10115DF29F023
:1068500029D2CAD0D7D08A95C9F713E3C7D066200A
:1068600099F7089500E4DDD01DD2BED0192D133064
:1068700038F4110F110F1C701363B8D0EBDEA1F7C1
:10688000089500E2CED0662463949924EDCFBBD165
:10689000E5EBF1E073E0B0901401B3941B2D01D14E
:1068A00001937A95D1F70895AED1E5EBF1E073E06D
:1068B000B0901401B3941191D4D01B2DEFD07A95E0
:1068C000C9F708950091A80100FD089501600093A3
:1068D000A80131D1E9EAF1E001931193219238D175
:1068E000A0919C017BE1ECEAF1E08DD1072F1A2FFA
:1068F000D6D03BD1019373957232B8F31FE3D1D058
:106900000093B30108957FD10091A8012092A801BE
:1069100070E0E1EBF1E00FE11191A4D0072F1FE14E
:10692000ADD073957230B8F337977BE1072F119193
:1069300099D073957E31D0F30FD165D10FE11091CD
:10694000B30190D00FE11FE3AAD08091A9019091EB
:10695000AA010A970EE1182F85D00FE1192F82D0D6
:10696000CBD0A5D00EE11091AF017CD00FE11091FA
:10697000B00178D0089551E047D140E250E04ED1C7
:10698000E8E1F1E001931193219331932295022FD5
:106990000F703295307F302B207F12951F70212B86
:1069A000343909F422500CE1233008F00FE1009350
:1069B0001401089501E001C000E05CE025D141E050
:1069C0002DD1089500E010E002C000E713EA54E082
:1069D0001BD140E123D1089513E0092D23C017E016
:1069E000082D20C017E11EC013E11CC0B12E17D026
:1069F0001B2D1D7F14D01B2D12D01B2D10D01270FB
:106A0000E1F3089517E30BD017E709D017E307D098
:106A100008951F9304D01F91116001D0089500E0E4
:106A200001C013E24FE051E061E0F9D0089558E071
:106A3000EBD057DC47DF95D0107810640770BCD0DE
:106A4000089551DC59E0E0D0552493D0067004300D
:106A500031F004E034D15A94C1F758E0D5D041DC8C
:106A600008950CE104D012951F70106E5AC004FBFB
:106A70000295007F212F2F70022B0895F8DF1295C9
:106A8000110F10F913701C624CC00CE130EBEFDFFA
:106A900030F91295110F1670132B43C00CE138EB2F
:106AA000F6CFF3DF10919C01F9DF5FD0ACC014E9A1
:106AB00009E037C016E901E334C010E000E031C05E
:106AC0000EE1182FCFDF0FE1192FCCDF089511E968
:106AD00001EC27D010919C01E1DF47D094C0F0DF9A
:106AE00011E800EC1EC0BDDF13E901EC1AC0B9DFEC
:106AF000E7DF13E800EC15C015E908EA12C01091B1
:106B00009E01112309F408951F93102F0BE1AADFB2
:106B10000CE11F91A7DF0DE110E0A4DF13E808EB03
:106B200000C04091C2014A3009F06DD040E151E00F
:106B300061E075D0089567D040E250E06FD00895CD
:106B400080E401C080E20DD01F79182B35D0089564
:106B500010D0106833D008950CD01F770F7E2ED040
:106B6000089528E007C029E005C02CE003D0012FDC
:106B700008952DE05BE048D045E051E0022F4ED073
:106B800045E150E04BD00895019111912F9317D01A
:106B90002F9188E0222309F084E0E3DF182B0CC05A
:106BA000009123011091240122E009C000912501E8
:106BB0001091260123E003C028E001C02DE05BE036
:106BC00023D0206145E151E029D008952F9A4ED07D
:106BD0004DD04CD04BD04AD02F9848D02F9A46D089
:106BE00008952F9A43D02F9841D040D008953ED099
:106BF000662329F02F983AD06150E8F72F9A36D0C3
:106C0000089555E001C05AE05093C201F52E44E0CA
:106C100051E060E0E6DF11D0EADF089560E0E3DFF5
:106C2000F02E0BD00E2DF12E08D01E2DF22E05D0F9
:106C30002E2DF32E02D03E2DDACFDD24D394EE2478
:106C4000442311F4089512D0C3B0C3FA0EF4ED2812
:106C500050FDF0FAF694C2F8C5B84A9521F0DD0C63
:106C600091F704D0089553FD08952F9AA090100134
:106C7000AA2029F4299A000000C029980895AA940E
:106C8000F1F7299AA0901001000000C0AA94E1F742
:106C90002998A0901001AA94F1F708950E94FF3F4F
:106CA0000C94FA3F0C94FB3F0C94FC3FFDDF0091E9
:106CB000E8000E770093E80008950C94F83F1F93C6
:106CC0000A9521F019E01A95F1F7FACF1F9100D03B
:086CD00000C000C0000008959F
:066CFA005AA5FF0600038D
:00000001FF
