:020000020000FC
:101C00007FC103E0502E0895F89422242FBE0FEFD9
:101C10000DBF12E01EBF00E03FD10091170103FD90
:101C200026C024B825B818E51AB917EB1BB902FD70
:101C300013E002FF10E01093CB0001FD06C02092DC
:101C4000CD001FEC1093CC0008C00091130100934D
:101C5000CD00009112010093CC0002E00093C80077
:101C600006E00093CA004BD008E10093C90024BCF1
:101C700025BC20926E00A89A20921A0120921B0186
:101C800020921C01209219010FEF0093180182D0BD
:101C900034990AC02AB82BB82092C90025BC80ED1F
:101CA000FAECE3E50C94001C10D174D0FBD051F099
:101CB0000091C80005FF06C042986CD008D100937F
:101CC000CE00429A67D080910101209201018823C1
:101CD00019F180FF02C0A4D05DD081FF07C0009140
:101CE000090100951BB100FB14F91BB982FF14C058
:101CF00040910B0150910C014215520521F408E16D
:101D00000093C90009C00FEF4017500721F400E10C
:101D10000093C90001C042983DD020911901109153
:101D2000180100E0489B0160499B08604D9B0260E0
:101D30000B70009318012C7121F4011741F12092CE
:101D4000190122FB05F923FB06F924FB04F902F92A
:101D500021D011E01093E900AAD0C9F011EA109344
:101D6000F10010E21093F1002092F1002092F100B6
:101D700011D02092F1002092F10012E01093F100B6
:101D80002092F1000093F1002092F10098D002D04F
:101D90001ED07DCF3091C80037FF089510911A01F1
:101DA00040911B014A951417C1F3429840911901C3
:101DB000432B409319013091CE00EDE1F1E0E10FAA
:101DC000F21D3083139510931A01429AE3CF1091BC
:101DD0001A0120911B011217D1F066D041F47091C5
:101DE000E800707211F46BD00EC0121761F0EDE1D3
:101DF000F1E0E20FF21D0081239520931B01009377
:101E0000F100C8DFECCF00E706BD04E005BDA89BEC
:101E100006C025BCA89A73E07093E90050D00895DD
:101E2000E2E0F1E00191119121913191409117018E
:101E300043FD089541FD1CC040FD04C030E844E866
:101E40005EE103C030E040E25CE160E070E030174A
:101E50004107520738F0301B410B520B6395B9F71D
:101E60007395F5CF615070407093CD006093CC00B6
:101E700040E00191002309F048600191002321F026
:101E8000017002950062402B01910550000F067011
:101E9000402B4093CA0008950C94F61F0C94F71F32
:101EA0000C94F81F0C94FA1F73E07093E900709182
:101EB0000001772319F07091E80070720895009185
:101EC000E8000E770093E80008950C94FF1F00913E
:101ED000F1001091E80012FF089515FD089510918A
:0A1EE000E8001B771093E800089556
:061EFA005AA57F0100045F
:00000001FF
