:020000020000FC
:060000000C943900189574
:02000800189549
:02000C00189545
:02001000189541
:0200140018953D
:02001800189539
:02001C00189535
:02002000189531
:0200240018952D
:02002800189529
:0A002C000C9442010C946801189531
:02003800189519
:02003C00189515
:02004000189511
:0200440018950D
:02004800189509
:02004C00189505
:02005000189501
:020058001895F9
:02005C001895F5
:020060001895F1
:020064001895ED
:020068001895E9
:02006C001895E5
:100070001895F89422242092D8002FBE0FEF14E098
:100080000DBF1EBFA0E0B1E0A017B1072D92E0F3B5
:1000900005E0A2D2209200022EBA01E097D2A6D0AB
:1000A00000E00093E90008E00093E20008E000931C
:1000B000F0000091F0000870C9F3A0E0B1E0C0E0EA
:1000C000D1E0789407E904B908E405B9429A3A9A6C
:1000D00061D007FF03D007FD1CD0FACF15B123B1C3
:1000E00000FB11F901FB17F902FB10F903FB14F9EE
:1000F00004FB12F915B905FF429805FD429A06FF67
:10010000089500E023FB00F926FB01F90883C3955D
:100110000895702F7F7306FD11C03CD068E045B193
:1001200000FB42F945B9069500FB299A42F96A9508
:1001300000002998B9F77A9581F708952C9B15C08E
:1001400029D068E051E045B1FF2400FB42F945B9F0
:100150001B99F52A299A550F06956A952998A9F7AA
:10016000F882C3957A9561F7089514D068E051E05C
:1001700045B1FF2400FB42F945B91E99F52A299A99
:10018000550F06956A952998A9F7F882C3957A952F
:1001900061F70895009100020023E1F302E000936B
:1001A000E9000091E80002FF06C005FF03C00091CE
:1001B000F100089551D001E00093E9000091E800BA
:1001C00000FF13C005FF10C001E30093F10000E63B
:1001D0000093F100AC1741F00C91A3950093F1004E
:1001E0000091E80005FDF6CF31D0D4CF2092630016
:1001F00000E20093D80000E80093D8000093D800F4
:1002000006E009BD09B500FFFDCF2092E0001F9375
:100210002092E90000E010E002D01F9108952F9392
:1002200021E02093EB000093EC0012601093ED00AE
:100230002F9108950091E800077F0093E80008954A
:100240000091E8000E7F0093E80008950091E80017
:100250000E770093E80008950091E8000B77009373
:10026000E80008950091E8000B7F0093E8000895EE
:100270000091E80000FFFCCF08950091E80002FF24
:10028000FCCF08950F930FB70F930091E9000F93E0
:100290000091E100087059F007EF0093E100B7DF2B
:1002A00001E00093EA002092EA002092000200E0C0
:1002B0000093E90008E00093F0000091F00008705E
:1002C000C9F30F910093E9000F910FBF0F9118959B
:1002D0000F930FB70F930091E9000F9300E0009385
:1002E000E9000091E80003FD0E947D010F91009359
:1002F000E9000F910FBF0F9118951F932F933F9314
:10030000EF93FF93AFDF1091F1000091F1001038EF
:10031000B9F4063011F4F0D071C0003031F48ADF46
:100320002092F1002092F10007C0083049F482DFEA
:10033000009100020093F10083DF9FDF8DDF5EC03C
:100340001030B1F4053049F41091F10073DF78DF1B
:100350008FDF10681093E30051C0093049F4009119
:10036000F1000093000266DF6BDF82DF1ED146C022
:10037000103C49F50A3031F45DDF00910102009331
:10038000F1001DC00039A1F4E8E0F4E00091F100B3
:100390001091F1000091F100000F0E77E00FF21DB7
:1003A00049DF05910093F10005910093F10007C02A
:1003B00041DF06E30093F10003E80093F10040DF22
:1003C00057DF4ADF1BC0103499F4003009F40CC029
:1003D000033009F409C0093029F40091F1000093B9
:1003E000010202C00B3001F425DF2ADF41DF06C025
:1003F0000091EB0000620093EB001CDFFF91EF9196
:100400003F912F911F9108950000FB0901600004A6
:1004100080281C001001940EA218BA120E0341008D
:100420006C007400650072006100180355005300F1
:1004300042002D0042006C006100730074006500F2
:100440007200120330003000300030003000300005
:100450003000300001020301000000000000000035
:10046000000000000000000000000000000000008C
:10047000000000000000000000000000000000007C
:1004800000000000000085D01201100100000008EB
:10049000FB090160000401020301090220000101BF
:1004A0000080280904000002FFFFFF000705810209
:1004B00040000107050202400001040309040E0385
:1004C00041006C0074006500720061001803550063
:1004D000530042002D0042006C0061007300740064
:1004E0006500720012033000300030003000300030
:1004F00030003000300000001091F1000091F10058
:10050000013021F402E1E8E8F4E028C0023021F4EF
:1005100000E2EAE9F4E022C00330C1F4103021F433
:1005200004E0EAEBF4E01AC0113021F40EE0EEEB47
:10053000F4E014C0123021F408E1ECECF4E00EC059
:10054000133051F402E1E4EEF4E008C00A3021F483
:1005500002E0E6EFF4E002C000E008952091F1002F
:100560003091F1002091F1003091F100102F62DE06
:10057000012F0217230608F0022F202F222371F0EB
:1005800077DE30E0222341F0383031F033950591A9
:100590000093F1002A95F6CF53DEF0CF177011F4D7
:1005A00067DE4EDE5FDE01E00895F0E0E9EE01E097
:1005B000008301E810E333DE02E0008300E810E38B
:1005C0002EDEEAEE06E000832082089510E8109304
:1005D00061000093610008950F931F932F9318E219
:1005E00021E300002A95E9F71A95D1F70A95B9F7A2
:0805F0002F911F910F91089556
:00000001FF
