:020000020000FC
:102D0000D1C4F4D004E30093120107E2089500084F
:102D10000005060D02020E02102E10121A2526279B
:102D200028292C292C2C2C3100003A3B403C3D3EDC
:102D30003F485A4458646C6E000076787A868892D0
:102D4000949DA6ADB2B7BD00E0043336383900001B
:102D50000D9114E264D609EC01C000EC09930895CA
:102D60007DC68C91A2D68E7F863909F4BFD0089596
:102D70008FC67CD6B9C097D1F1CF0D9140D6E7D0A0
:102D8000209828980D913BD6AFC012961BD116976C
:102D90000D911D91112311F020D2A6C030D6A4C0F0
:102DA000B0C1C0C1D1C1D8C10DD129929DC03D9142
:102DB00009D12992F99298C00FD196C0B3D0BAD058
:102DC00093C0C5D091C01DD18FC04BC279C2BBC2C8
:102DD0009EC2BCC2ABC200E801D320E009C000E241
:102DE00020E0119603C000E42D912370F7D202D3A6
:102DF00050D3008905B90D910395FDD5048505B91A
:102E000026D30993089533E001C03D9104E0E6D252
:102E100024E0231B2370299209D313D3089520E0C3
:102E200008E0DCD2109124010D91E7D2F4CF21E02B
:102E3000F7CF00E2E4E2F1E01D9111930A95E1F78A
:102E400053C02CD351C04BD34FC024E1D8D300E0A2
:102E5000E6D3F3D308F442C00D91D1D500E0D1D32D
:102E600043C050D33BC02BE1CAD3B4D32992A4D3DF
:102E7000A6D3BAD30297D9F737C047D32FC02CE1D6
:102E8000BED3A8D3299298D3AFD30197E1F72CC032
:102E900025E1B5D32D9123702B5F0D91C1D3CDD3F7
:102EA0001DC02AE1ACD32D912370255FBCD315C082
:102EB00026E1A5D3119625E0F0CF2EE1A0D320E1A5
:102EC000B2D30BC029E19BD3A0D32AE0ACD305C079
:102ED0002DE195D39AD32FE0A6D329920993089593
:102EE000E0932001F09321012992089500E006BDAE
:102EF0000091150107BD1FEF00911401077009F43F
:102F000010E0086005BD137414BD279809F0279AD6
:102F1000089500911C01002311F0289801C0289AFF
:102F2000209A089529982A982B9804B10660077F63
:102F300004B9089500911601043038F40370006557
:102F40000CBD0DB50E7F0DBD08952CBC08952CBC95
:102F500004B1097F04B908951090160101C000C0A2
:102F600000C000C000C01A941120C9F708951F9333
:102F700010911601143030F40EBD0DB507FFFDCFD2
:102F80000EB50EC018E0000F10F42A9A01C02A985E
:102F9000E3DF1B990160299ADFDF29981A9599F7D9
:102FA0001F910895E4DF239532130895F02E0895BC
:102FB000FF2420E0042FF6DF052FF4DF062FF2DFD9
:102FC000072FF0CFFF2420E00D91ECDF0D91EADF19
:102FD0000D91E8DF0D91E6CF4D915D917D912992A4
:102FE000452B71F0442319F04A950D9101C000273B
:102FF000BEDF772311F07A95F3CF5A950993F0CF7E
:1030000008952CBC03E0FBD4299AF9D42998F7D46D
:1030100091DF089510911C01112309F4089500E037
:10302000E4D480E090EA20980197D1F11899FCCF80
:1030300039E040E051E213B18FEF90E2019781F166
:1030400023B1212720FFFACF4817590708F0AC0118
:103050003A9589F780E091E2841B950B019701F185
:10306000AC010FEF552331F4403820F400E8413231
:1030700008F400E4B6D319E026E08894CA0110F001
:10308000209A02C020980000019719F0000000C0AB
:10309000FBCF000027951A9589F7209802E0AFD45E
:1030A00001E0A3D40895FD01179633DF0181A7D471
:1030B00039DF0281A4D4AEDF189A209A3BDF028167
:1030C0009ED427DF02819BD4A38036817BDF1497B7
:1030D000332341F01581F11629F093DFAA94A9F763
:1030E00000EC089500E00895319650F4009122011B
:1030F00003950093220100912301006400932301B2
:10310000089540D037D0EE247BD008E0E02E78D070
:10311000EBDF0297C1F78AD0E0932001F093210101
:10312000099308952FD05CD534E00D902992402D5D
:103130005F2F6E2F70E03CDFF992486039DFF99223
:10314000D3DF0297A1F7CCCE15D0EE2459D031961B
:103150000197D9F76BD0C4CE43D50D9034E02992B6
:10316000402D5F2F6E2F70E023DFF992319601978B
:10317000B9F7B6CE35D56D919D907D91AD90BD904E
:10318000129608950091230107FF089506FF089500
:10319000097F009323014DE450E06091220170E02B
:1031A00007CF11971D911F3F21F4092D28D400E06E
:1031B0000895D92C0B2D0E29DADE0F2FD8DE0E2F15
:1031C000D6DE0027D4DE011700E031F0DA9400E803
:1031D00019F001E014D4EECF0895D92C00EFC7DE2A
:1031E0000027C5DE0027C3DE0027C1DE00FB00E0AC
:1031F00036F4DA9401E819F001E001D4EFCF089534
:10320000072F0E29B4DE0F2FB2DE0E2FB0DE0D9188
:10321000AEDE00E061FF03C0092DF1D300E062FFE4
:1032200001C0BFDF63FF01C0D8DF089567FF18C08A
:103230000A2D9DDE009121019ADE0091200197DE8A
:10324000002795DE00EC64FF03C0092DD8D300E011
:1032500065FF03C03197A5DF319666FF01C0BDDF72
:103260000895FD0174DE2092140140DE08B10F7054
:10327000006208B904EF07B908E2B3D2449A0081AA
:10328000BAD300913D0104B925B8DDD003810023F4
:1032900031F0479A0481AFD347980581ACD30281BE
:1032A000A1D00A95E9F745980081A5D344980081FB
:1032B000A2D30091300105B901E09DD32992089570
:1032C000FD01459A449A008196D324B825B82AB8BE
:1032D0002BB8018190D304E007B928B800818BD3C3
:1032E00029920895F1E0E4E20291007809F431971F
:1032F0000291148182D0E032D9F70895F1E0E0E242
:1033000000810F5F0193138178D0D1F308959D91CF
:103310008D9102E063D0E6DF299287D021E089D049
:1033200090D0ECDF0297C9F7299208959D918D9175
:1033300003E054D0D7DF299278D083D0DFDF019724
:10334000D9F729920895689400E102C0E89401E158
:103350009D918D915D914D9141D0C4DF50FF28C06A
:10336000BC015F935695577091E080E039F090E092
:1033700081E05A951AF0880F991FFBCF5F91681B67
:10338000790B18F18F939F9335D0019716F42FD0B6
:10339000019736D0082F092B49F457FF03C038D0C6
:1033A00057D0D0F0ABDF9F918F91E9CFA7DFECCF63
:1033B00021D02ED04DD080F02EF4019718D02AD0F5
:1033C00047D050F09BDF019799F700E056FF04C00B
:1033D0003FD010F000E002D00993089510912C0125
:1033E00015B90BB9469A00C000004698089510918F
:1033F000290102C0109128010D910BB915B9F2CF26
:1034000010913C0115B900C01091310115B9089512
:103410002CE001C02DE03DD0148115B90C940F1A99
:103420000C94111A108115B9089520E02AB81FEFE5
:103430001BB92FD0048905B900C000C009B1099398
:103440000895048505B90FEF2BB80AB908954D9179
:103450004423E1F0042F10E023E02A951AF0000F36
:10346000111FFBCF30913F0121E03A9512F0220F5E
:10347000FCCF3AEF00003A95E9F733B1322331F44B
:1034800001501040B1F701E80894089500E08894D5
:103490000895E4E2F1E0E20FF21D0895FD010381D9
:1034A00000935F0208B10F70006B08B904EF07B911
:1034B0002BB803E00AB925B80091430104B9EDD057
:1034C0004598EBD04798E9D00281DFD00A95E9F71B
:1034D000E4D044980AE093D224B829920895FD01DB
:1034E000449A459A00818BD22AB82BB8018187D2A1
:1034F00004E01091190110FD04E907B928B8008112
:103500007ED20895F09A27E102C0F09828E177D0A2
:1035100061D05D91AD9050FF36C0BC015F93569570
:10352000577091E080E039F090E081E05A951AF010
:10353000880F991FFBCF5F91681B790BA0F18F93C8
:103540009F930D911091270188D01091360101971A
:10355000F09B07C00D91109128017FD0109135018B
:10356000019700E07AD0082F092B11F03DD0E9CF68
:1035700057FF05C025E057D01A2D60D0E0F034D0B9
:103580009F918F91D9CF0D914AD01A2D57D098F095
:10359000F09B06C001970D913DD01A2D4FD058F0E9
:1035A00023D0019781F756FF05C01A2D47D018F098
:1035B00000E027D000E0089510912C0102C0109186
:1035C0002D0100E04AD000E020913701122B45D0B8
:1035D000099308959D918D91F1E0E2E202911581A8
:1035E0003CD0E032D9F70895F1E0E0E200810F5FCE
:1035F0000193202F148131D02223C1F3089549DF94
:1036000000811091240129D008950D911091250178
:1036100024D0089526E0109127011FD004C025E092
:10362000109127011AD035DF00E0108116D000E09C
:1036300020913701122B11D008951D91889400E03C
:10364000112351F001E0DBD1889400E04A9904C0D5
:103650001A95C1F7089401E808951F9348E015D022
:1036600039B107FB30F917FB31F932FB33703BB945
:10367000000F110F0EF401604A9589F706D0589893
:10368000599803D002D01F91089530915F02469A55
:1036900000C046983A95B1F6089501E0B0C15AA528
:1036A000D1040002ADC00EE10093120105E00895BF
:1036B0000D910E3F31F0013009F4D0C109EC0993AE
:1036C00008953D9129920D91315010F42992089559
:1036D000003029F4FD91ED9100810993F4CF013080
:1036E00029F4FD91ED910D910083EDCF023049F465
:1036F000FD91ED910D911D9120812023212B20839F
:10370000E2CF033019F40D9176D1DDCF0430D9F634
:103710000D9167D0D8CF5AA53B00000071C002E3DD
:103720000093120106E0502E089504E71DE13801D0
:1037300088249090110180E090E03324429A839491
:1037400051F4939441F4429A81E080930D012092C8
:1037500001010C940000429A0AE043D04298E7D25B
:103760001ED469F311D4CDD0332049F342989BD0B5
:10377000DFCF5AA52D00000F552490910D018F70B9
:1037800070E0EDEBFBE1EE0FFF1F389715912591EF
:103790001A35A9F4253A99F4259135911591159189
:1037A000F695E795E21BF30B813069F3811759F722
:1037B0000995602E77246E0E7F1E7395E4CF3496A4
:1037C000E0931E01F0931F01772321F491E8909379
:1037D0000D01089590930D01552011F0F301099406
:1037E00008951F930A9521F019E01A95F1F7FACF81
:1037F0001F9100D000C000C0000008955AA5BCCFA2
:10380000F89422242FBE0FEF0DBF12E01EBF01E07F
:10381000ECD0E33511F4FA3C19F080E0E3E5FAEC82
:103820000FEF12E0A0E084FDADE0B1E0A017B1071A
:103830002D92E0F3429A3A9A449A3C98349906C001
:1038400083954298349BFECF429A8068E0EFF1E086
:10385000CDE0D1E0D7D131960993CD31D8F388238B
:1038600011F480910D0180930D01E82FEF7085FD1B
:1038700009C0429AEE2331F0EA95C0D03A9A4298B4
:10388000BDD0F7CF86FF03D287FF0C94000068D02D
:1038900080E090E03324429A77D333D03320E1F3B1
:1038A000429801D0F5CFA4E4B1E01596ED01442093
:1038B00029F000EB099301EC099309C021960C91C2
:1038C0000F3F19F411966AD002C0F3010995E4E4A0
:1038D000F1E0CE018E1B9F0B05979283838300E05E
:1038E00011910127EC17FD07D9F700830696E4E450
:1038F000F1E0019166D30197E1F7F9D180E090E022
:1039000008954026FC01EC5BFE4F00830196863053
:10391000920570F08A179B0719F401E0302E1DC044
:1039200006EE80170EEF900710F089E191E0089500
:10393000813021F40B3189F4402E0895823079F0E2
:10394000833011F4B02F0895843019F4A02F169607
:103950000895853011F40E3011F080E090E0089564
:1039600016D0349704E71DE138018F708E3049F08E
:10397000059115910A3529F4153A19F4F695E7954C
:103980000995089500911E0110911F010895E0E02E
:10399000F8E3E0931E01F0931F0108950D910030AC
:1039A00049F429928D9180658F9391DF8F91FAEC84
:1039B000E3E526CF013029F4299200910D01099306
:1039C0000895023021F4299204E009930895033008
:1039D00021F4D8DF099319930895043019F4D7DF3F
:1039E0002992089509EC0993089510E81093610055
:1039F000009361000895002311F4089506E90F93E0
:103A00001F932F9318E221E300002A95E9F71A95F6
:103A1000D1F70A95B9F72F911F910F9108959F91B2
:103A20008F91FC01E11BF209EE0FFF1F059015902D
:103A3000112061F0001950F0011518F0E10DF21D90
:103A4000F5CFE00FF21DC895800D921D8F939F93C7
:103A50000895000853544B3530305F320AE0E2E5F8
:103A6000FAE3159119930A95E1F70895E0E2F1E080
:103A70000D91006403830D9102830D9101830D91DB
:103A8000008308952992EEE0F1E00F70E00F0895B1
:103A90000D91102F107F103921F00E7F003851F555
:103AA0000CE9F0DF0081099308950D91102F107F2C
:103AB000103901F5E7DF0D91008308950008000536
:103AC000060702020802101E0B0B0B1014252D0A0C
:103AD000350A354D4F6000610B0B0B0C14222D0B7A
:103AE000410B3F54560B0000E8940D911AE197DF0B
:103AF00009EC01C000EC09930895B0CFD6CFC8CF30
:103B0000B5DF6CC029926AC07D916D9112968DC00F
:103B10007D916D91179689C063D02992EE0FFF1F9A
:103B200080D000E008F4059109930197C9F7F69554
:103B3000E79553C055D0129602C052D017961D91EA
:103B400067D031960197D9F748C04AD029925AD008
:103B5000099331960197D9F740C06894E0E0119637
:103B60000D9103FDE1600D9103FDE26006C0F3E0FD
:103B700001C0FD91E4E0EF1BE370F0E009E007BF56
:103B8000C8952992099256F1089510E001C011E0FC
:103B9000FD010381689404C010E001C011E00D91A3
:103BA000000F010FE02FF0E001E207BFC895E9CF59
:103BB000A1CF16D0933AE1F7082F0178C9F731D099
:103BC00040F41AD003E007BFE895E058FF4F8A950C
:103BD000B1F712D001E107BFE89509D02992089505
:103BE0009D918D91E0912001F09121010895E09344
:103BF0002001F0932101089507B700FDFDCFF99949
:103C0000FECF0895F9DFF2BDE1BDF89A00B5089541
:103C1000F9DF011719F010BDFA9AF99AF999FECF58
:103C20000895B0DEE017F10708956894DBDF0E2FEA
:103C30000F7319F000EC09930895EE0FFF1FF1DFE9
:103C4000C8F780E890E0681B790BA0F309F4E894CA
:103C5000EF93FF930D901D90CFDF01E007BFE89534
:103C600032960297B9F7F695E795C1DFFF91EF918C
:103C7000C3DF03E007BFE895BFDF05E007BFE895B6
:103C8000BBDF01E107BFE8958EF2299208952092EB
:103C9000630000E20093D80000E80093D80000938E
:103CA000D80006E009BD09B500FFFDCF2092E00075
:103CB0001F932092E90000E010E202D01F910895C6
:103CC0002F9321E02093EB000093EC0012601093FF
:103CD000ED002F9108950091E800077F0093E80020
:103CE00008950091E8000E7F0093E8000895009188
:103CF000E8000E770093E80008950091E8000B7744
:103D00000093E80008950091E8000B7F0093E8001D
:103D100008950091E80000FFFCCF08950091E800AD
:103D200002FFFCCF08950091E8000072089522245C
:103D30002092E9000091E80003FD10D00091E1001D
:103D400003FF089507EF0093E100B2DF01E0009365
:103D5000EA002092EA002092000108951F932F9319
:103D60003F93EF93FF93CFDF1091F1000091F100AB
:103D7000103821F4063011F49CD05EC01030A9F444
:103D8000053049F41091F100A6DFABDFC2DF106807
:103D90001093E30051C0093041F40091F100009309
:103DA000000199DF9EDFCCD047C02091F100309117
:103DB000F100113251F5003281F4E2E0F1E08BDFE5
:103DC000ADDF07E01091F10011930A95D9F795DF67
:103DD00088DF9FDF01E036D02FC0023251F47BDF55
:103DE00080DFE9E0F1E02193319393DF02E02AD014
:103DF00023C0033251F46FDF74DFEBE0F1E0219375
:103E0000319387DF04E01ED017C0113A79F40132F4
:103E100069F4E2E0F1E05FDF07E011911093F10057
:103E20000A95D9F75EDF75DF68DF06C00091EB0009
:103E300000620093EB004FDFFF91EF913F912F91D4
:103E40001F91089510910101102B10930101089505
:103E50001201000202000020EB03182000100101F3
:103E600001010902430002010080A00904000001D1
:103E700002020100052400100105240103010424AD
:103E800002060524060001070581031000FF09044E
:103E90000100020A00000007058302200000070558
:103EA0000402200000000403090408035500320046
:103EB00053001091F1000091F100013021F402E172
:103EC000E0E5FEE316C0023021F403E4E2E6FEE39F
:103ED00010C0033061F4103021F404E0E6EAFEE3A0
:103EE00008C0113021F408E0EAEAFEE302C000E075
:103EF00008952091F1003091F1002091F10030916E
:103F0000F100102FE8DE012F0217230608F0022F20
:103F1000202F222371F0FDDE30E0222341F03032E9
:103F200031F0339505910093F1002A95F6CFD9DE53
:103F3000F0CF1F7111F4EDDED4DEE5DE01E008956F
:103F4000F0E0E9EE01E0008301EC10E1B9DE03E00E
:103F5000008301E814E2B4DE04E0008300E814E228
:103F6000AFDEEAEE0AE100832082089500910D01A0
:103F7000013841F4329A09E142DD349BFBCF429A89
:103F8000882783CC08950000D2DE349BEFDF07D072
:103F9000D9F30091F1000F9309D00F91089500918A
:103FA0000001002361F004E00093E9000091E800C3
:103FB00002FF05C005FF02C0989408959EDE189484
:103FC00008951F93102F00910001002351F003E08A
:103FD0000093E900A8DEF1F31093F100A4DE09F4E8
:103FE00086DE1F91089587BFE8950895FECCF9CB32
:103FF00002CD15CDD4CFC8CFE4CFB0CEA3CE97CECF
:00000001FF
