:020000020000FC
:0200000039C005
:08002C000C94C6000C94E300E3
:10007400F89422242FBE0FEF0DBF14E01EBF01E041
:1000840045D02AB824B82BB825B88F7030D034990D
:1000940005C04298349BFECF01E81CD03DD0B9F393
:1000A40051D00137C9F3080F62D0F1CF002311F406
:1000B400089504E60F931F932F9318E221E30000A1
:1000C4002A95E9F71A95D1F70A95B9F72F911F9157
:1000D4000F910895802F8065E3E5FAEC00E000932A
:1000E400E9002092E2002092F0000C94003C00E031
:1000F4000093E90008E00093E20008E00093F000B8
:100104000091F0000870C9F37894089510E81093F2
:10011400610000936100089500910001002389F0BB
:1001240004E00093E9000091E800047051F00091AC
:10013400E800007231F40091E8000B770093E800C6
:1001440098940895E9DFF1F31091F100F0DF012FA5
:10015400089500910001002349F003E00093E900B1
:100164000091E800007211F403D09894089506D029
:100174000091E8000E770093E8000895102FE9DF5E
:10018400F1F31093F100ECCF0F930FB70F9300919D
:10019400E9000F930091E100087011F00E94FE3F06
:1001A40000E00093E90008E00093F0000091F00003
:1001B4000870C9F30F910093E9000F910FBF0F91DD
:1001C40018950F930FB70F930091E9000F9300E078
:1001D4000093E9000091E800087011F00E94FD3FCF
:0E01E4000F910093E9000F910FBF0F91189536
:00000001FF
