:100000000C944C000C9456000C9456000C94560022
:100010000C9456000C9456000C9456000C94560008
:100020000C9456000C9456000C9456000C94350118
:100030000C945D010C9456000C9456000C945600E0
:100040000C9456000C9456000C9456000C945600D8
:100050000C9456000C9456000C9456000C945600C8
:100060000C9456000C9456000C9456000C945600B8
:100070000C9456000C9456000C9456000C945600A8
:100080000C9456000C9456000C9456000C94560098
:100090000C9456000C94560011241FBECFEFD4E0F0
:1000A000DEBFCDBF0E9458000C947C010C94000070
:1000B0001F93CF93DF93EC01CF70D0700E9491001B
:1000C00008C0349906C04298349BFECF81E80E9454
:1000D00085000E94A3008823A1F30E94C200182F6C
:1000E0008C0F0E940A018DE00E940A018AE00E94A2
:1000F0002701113771F7EACF2FB7F894E1E6F0E066
:1001000090E8908380832FBF08951092E9001092A9
:10011000E2001092F0008065882FE3E5FAEC0E947F
:10012000003C78948091E20088608093E200109215
:10013000E9008091F00088608093F0008091F000E9
:1001400083FFF7CF0895809100018823C9F084E0F0
:100150008093E9008091E80082FF12C08091E8005E
:1001600085FF02C081E008958091E8008B7F809335
:10017000E8008091E8008F778093E80080E00895A0
:1001800080E00895809100018823E1F394E090934A
:10019000E9008091E80082FFFACF8091E80085FFB6
:1001A00012C09091F1008091E80085FD0AC0809115
:1001B000E8008B7F8093E8008091E8008F77809340
:1001C000E800892F08958091E8008B7F8093E800F4
:1001D0008091E8008F778093E800D9CF83E0809307
:1001E000E90080910001882319F480E090E00895EF
:1001F0008091E800829586958170089583E08093D0
:10020000E900E8EEF0E080818E7F808380818F7747
:1002100080830895982F809100018823E1F383E083
:100220008093E9008091E80085FFFCCF9093F10076
:100230008091E80085FD0AC08091E8008E7F809360
:10024000E8008091E8008F778093E80008950E948D
:100250000A0183E08093E900E8EEF0E080818E7F80
:10026000808380818F77808308951F920F920FB6CD
:100270000F9211242F920F938F939F939091E900E7
:100280008091E10083FF03C022240E94FE3F109270
:10029000E9008091F00088608093F0008091F00088
:1002A00083FFF7CF9093E9009F918F910F912F904B
:1002B0000F900FBE0F901F9018951F920F920FB6C0
:1002C0000F9211242F920F938F939F939091E90097
:1002D0001092E9008091E80083FF03C022240E946D
:1002E000FD3F9093E9009F918F910F912F900F9078
:0C02F0000FBE0F901F901895F894FFCFE0
:00000001FF
