:100000000C944C000C9469000C9469000C946900E9
:100010000C9469000C9469000C9469000C946900BC
:100020000C9469000C9469000C9469000C940C0207
:100030000C9434020C9469000C9469000C946900CF
:100040000C9469000C9469000C9469000C946B008A
:100050000C9469000C9469000C9469000C9469007C
:100060000C9469000C9469000C9469000C9469006C
:100070000C9469000C9469000C9469000C9469005C
:100080000C9469000C9469000C9469000C9469004C
:100090000C9469000C94690011241FBECFEFD4E0CA
:1000A000DEBFCDBF11E0AEE0B1E0E6EFF4E002C0AC
:1000B00005900D92A233B107D9F711E0A2E3B1E0A8
:1000C00001C01D92A733B107E1F70E94F6000C941E
:1000D00079020C9400001F920F920FB60F92112418
:1000E0008F939F93EF93FF9381E080933201E4E835
:1000F000F0E08081918190933401809333011182EB
:100100001082FF91EF919F918F910F900FBE0F90F2
:100110001F901895EF92FF920F931F939C0160E13F
:1001200077E20E946502462F972F862F60EF78EDC9
:100130000E9453028C01020F131F842F805D0E94C6
:10014000E101C80168EE73E00E946502262F972F37
:10015000862F68E17CEF0E945302080F191F822F3F
:10016000805D0E94E101C80164E670E00E946502C2
:10017000262F972F862F6CE97FEF0E945302080FDE
:10018000191F822F805D0E94E101C8016AE070E0C2
:100190000E946502F62EE72E862F805D0E94E10107
:1001A0008F2D9E2D66EF7FEF0E945302080F191FBF
:1001B000802F805D0E94E1018AE00E94E1018DE0D4
:1001C0000E94FE011F910F91FF90EF900895CF9331
:1001D000DF93EC0103C00E94E1012196888188230E
:1001E000D1F70E94D501DF91CF9108951F9380E848
:1001F00080936100109261000E94680115B880E44C
:1002000084B9789416BC92E094BD8CE987BD909334
:100210006E001092800087E08093810015E01CC082
:10022000349906C04298349BFECF81E80E945C015D
:1002300080913201882381F0109232018091330144
:10024000909134019093360180933501809135016E
:10025000909136010E948A000E947A01882301F35E
:100260000E949901893661F08A3628F48035A1F020
:10027000833591F708C0803779F0833769F703C079
:100280008EE091E00DC0109285001092840015BDA3
:100290002E9A82E291E004C015BC2E988AE291E089
:1002A0000E94E700D9CF2FB7F894E1E6F0E090E89C
:1002B000908380832FBF08951092E9001092E2008E
:1002C0001092F0008065882FE3E5FAEC0E94003C74
:1002D00078948091E20088608093E2001092E900B7
:1002E0008091F00088608093F0008091F00083FF9F
:1002F000F7CF0895809100018823C9F084E08093AE
:10030000E9008091E80082FF12C08091E80085FF3B
:1003100002C081E008958091E8008B7F8093E8001F
:100320008091E8008F778093E80080E0089580E076
:100330000895809100018823E1F394E09093E9000F
:100340008091E80082FFFACF8091E80085FF12C01B
:100350009091F1008091E80085FD0AC08091E8004D
:100360008B7F8093E8008091E8008F778093E8008E
:10037000892F08958091E8008B7F8093E800809119
:10038000E8008F778093E800D9CF83E08093E9007D
:1003900080910001882319F480E090E00895809115
:1003A000E800829586958170089583E08093E90046
:1003B000E8EEF0E080818E7F808380818F7780837C
:1003C0000895982F809100018823E1F383E08093C2
:1003D000E9008091E80085FFFCCF9093F1008091C7
:1003E000E80085FD0AC08091E8008E7F8093E800D8
:1003F0008091E8008F778093E80008950E94E101E2
:1004000083E08093E900E8EEF0E080818E7F8083D6
:1004100080818F77808308951F920F920FB60F927D
:1004200011242F920F938F939F939091E9008091C5
:10043000E10083FF03C022240E94FE3F1092E900E6
:100440008091F00088608093F0008091F00083FF3D
:10045000F7CF9093E9009F918F910F912F900F907C
:100460000FBE0F901F9018951F920F920FB60F920C
:1004700011242F920F938F939F939091E9001092E4
:10048000E9008091E80083FF03C022240E94FD3F21
:100490009093E9009F918F910F912F900F900FBE35
:1004A0000F901F9018955527002480FF02C0060E5C
:1004B000571F660F771F6115710521F09695879577
:1004C000009799F7952F802D0895AA1BBB1B51E12A
:1004D00007C0AA1FBB1FA617B70710F0A61BB70BB4
:1004E000881F991F5A95A9F780959095BC01CD0159
:0604F0000895F894FFCF0F
:1004F6005532532050756C736520436F756E746565
:10050600720D0A0053746172740D0A0053746F7091
:040516000D0A0000CA
:00000001FF
