:020000020000FC
:101C0000F894689422240FE50DBF14E01EBFA0E6EF
:101C1000B0E0A017B1072D92E0F38A98929A949AB7
:101C20008C9A16F48299ECC19498829BFECF949A78
:101C30000DE20093600001E00093630000936600F2
:101C400003E020BC09B908E10AB906E800BD80E05C
:101C500090E03324949A5F9BFECF0CB129D03320BF
:101C6000D1F3949801D0F3CFABE6B0E01596ED0137
:101C7000442029F000EB099301EC099302C021965E
:101C800082D0EBE6F0E0CE018E1B9F0B059792838E
:101C9000838300E05D9BFECF11911CB90127EC17F7
:101CA000FD07C1F75D9BFECF0CB980E090E0089581
:101CB0004026FC01E559FF4F0083019686309205CE
:101CC00070F08A179B0719F401E0302E1DC006EE54
:101CD00080170EEF900710F089E191E008958130B0
:101CE00021F40B3189F4402E0895823079F083304D
:101CF00011F4B02F0895843019F4A02F169608958A
:101D0000853011F40E3011F080E090E0089506E97E
:101D10000F931F932F9316E220E300002A95E9F713
:101D20001A95D1F70A95B9F72F911F910F91089540
:101D300005901590112081F0001970F0011518F030
:101D4000E10DF21DF5CFE00FF21DC8953F912F91E7
:101D5000200D321D2F933F930895000800050607BC
:101D600002020802101E0B0B0B1014222A0A320A60
:101D7000324E4A5C005D0B0B0B0C141F2A0B3E0B02
:101D80003C524B0B0000E8940D91EAE5FDE1D0DFF9
:101D900009EC01C000EC09930895C9C0A8C080C037
:101DA000CED069C0299267C07D916D911296E8C02E
:101DB0007D916D911796E4C060D02992EE0FFF1FC0
:101DC000059109930197E1F7F695E79550C055D035
:101DD000129602C052D017961D91C9D03196019724
:101DE000D9F745C04AD02992BCD0099331960197C2
:101DF000D9F73DC06894E0E011960D9103FDE160D4
:101E00000D9103FDE26006C0F3E001C0FD91E4E046
:101E1000EF1BE370F0E009E007BFC8952992099233
:101E200056F10895689400903100F8CF6894FD0150
:101E3000038101C00C910370E4E4FEE1E00FF21DA8
:101E4000C895ECCF1E930700A5CF17D0933AE1F7C2
:101E5000082F0174C9F77FD003E007BFE895E05C65
:101E6000FF4F8A95C1F777D001E107BFE895E0936E
:101E70006700F0936800299208959D918D91E091FB
:101E80006700F0916800089580021818101002028F
:101E9000040006080A0C0E001600181600100000B8
:101EA0000D91E8E8FEE144DF10EC18C012E015C027
:101EB0001AE013C0E0E009C0E1E007C0E4E005C0BB
:101EC000E5E003C0E3E001C0E2E0F0E0E05AFF4FEC
:101ED000108103C01FEF01C010E0299219930895EB
:101EE0009406030507090B000A020D0F00000D916F
:101EF000E0EEFEE11DDF00EC09930895E0E00BC089
:101F0000E1E009C0E4E001C0E5E005C0E3E003C0B2
:101F1000E6E001C0E2E0F0E0E05AFF4F0D910083FF
:101F200029920895000853544B3530305F320AE04F
:101F3000E4E2FFE1159119930A95E1F70895E7E6C8
:101F4000F0E00D91006403830D9102830D910183F4
:101F50000D910083089507B700FDFDCFE199FECFF5
:101F60000895F9DFFFBBEEBBE09A0DB30895F9DFEA
:101F7000011719F01DBBE29AE19AE199FECF08958D
:101F80006894E0916700F0916800E0300EE0F0079F
:101F900018F40E2F0F7119F000EC09930895EE0F4D
:101FA000FF1F80E490E0681B790BB0F309F4E8941C
:101FB000EF93FF930D901D90CEDF01E007BFE895F2
:101FC00032960297B9F7F695E795E0936700F0939C
:101FD0006800FF91EF91BFDF03E007BFE895BBDF2B
:101FE00005E007BFE895B7DF01E107BFE8954EF2CE
:041FF0002992089595
:021FFE0002CE11
:00000001FF
