:101C00007FC103E0502E0895F89422242FBE0FEFD9
:101C10000DBF12E01EBF00E03FD10091170103FD90
:101C200026C024B825B818E51AB917EB1BB902FD70
:101C300013E002FF10E01093CB0001FD06C02092DC
:101C4000CD001FEC1093CC0008C00091130100934D
:101C5000CD00009112010093CC0002E00093C80077
:101C600006E00093CA004BD008E10093C90024BCF1
:101C700025BC20926E00A89A20921A0120921B0186
:101C800020921C01209219010FEF0093180182D0BD
:101C900034990AC02AB82BB82092C90025BC80ED1F
:101CA000FAECE3E50C94001C10D174D0FBD051F099
:101CB0000091C80005FF06C042986CD008D100937F
:101CC000CE00429A67D080910101209201018823C1
:101CD00019F180FF02C0A4D05DD081FF07C0009140
:101CE000090100951BB100FB14F91BB982FF14C058
:101CF00040910B0150910C014215520521F408E16D
:101D00000093C90009C00FEF4017500721F400E10C
:101D10000093C90001C042983DD020911901109153
:101D2000180100E0489B0160499B08604D9B0260E0
:101D30000B70009318012C7121F4011741F12092CE
:101D4000190122FB05F923FB06F924FB04F902F92A
:101D500021D011E01093E900AAD0C9F011EA109344
:101D6000F10010E21093F1002092F1002092F100B6
:101D700011D02092F1002092F10012E01093F100B6
:101D80002092F1000093F1002092F10098D002D04F
:101D90001ED07DCF3091C80037FF089510911A01F1
:101DA00040911B014A951417C1F3429840911901C3
:101DB000432B409319013091CE00EDE1F1E0E10FAA
:101DC000F21D3083139510931A01429AE3CF1091BC
:101DD0001A0120911B011217D1F066D041F47091C5
:101DE000E800707211F46BD00EC0121761F0EDE1D3
:101DF000F1E0E20FF21D0081239520931B01009377
:101E0000F100C8DFECCF00E706BD04E005BDA89BEC
:101E100006C025BCA89A73E07093E90050D00895DD
:101E2000E2E0F1E00191119121913191409117018E
:101E300043FD089541FD1CC040FD04C030E844E866
:101E40005EE103C030E040E25CE160E070E030174A
:101E50004107520738F0301B410B520B6395B9F71D
:101E60007395F5CF615070407093CD006093CC00B6
:101E700040E00191002309F048600191002321F026
:101E8000017002950062402B01910550000F067011
:101E9000402B4093CA0008950C94F61F0C94F71F32
:101EA0000C94F81F0C94FA1F73E07093E900709182
:101EB0000001772319F07091E80070720895009185
:101EC000E8000E770093E80008950C94FF1F00913E
:101ED000F1001091E80012FF089515FD089510918A
:101EE000E8001B771093E8000895FFFFFFFFFFFF56
:101EF000FFFFFFFFFFFFFFFFFFFF5AA57F01000469
:101F0000FFC603E0502E089522242FBE0FEF0DBF11
:101F100012E01EBFCEE0D1E0EAE3FFE127E0359119
:101F200039932A95E1F7C017D1072992E0F307E822
:101F300004B909E005B94AD651C0FAFE0101B91247
:101F40001C00349908C024B825B880E88065FAECF4
:101F5000E3E50C94001CBED109F008950AD6802F49
:101F60008F779091A70198278093A70194FF07C0CE
:101F70000F7E24D607E498D6F8D596D696D190FF52
:101F800007C008E491D600E080FF01E08DD68DD136
:101F90008670843031F44BD502E486D6E4D577D30D
:101FA00086D60895022003310E320D3309420746CA
:101FB00003470B4D0152055305570462006301644A
:101FC0000471057815A009A109A207A316A409A503
:101FD00010C008C131C217D011D10000B2DF5ED6E7
:101FE000E9F360D612E236D105E401C001E45ED621
:101FF000F5CF28D1BED50670043011F018D5F6CF34
:102000009FD581D49FD51DD59BD55CD4EFCF1AD158
:1020100061D121F406E014E04ED1E0CFECEAF1E02A
:1020200048D147D146D1E2CF36D10CD15092AB0145
:102030006092AA017092A901D9CF34D6102F32D65E
:10204000202F00D1ABD1CACFFDD0F1D4E7CFFAD049
:102050004AD18FD50670043021F472D554D459E09A
:10206000D3D5BCCF70CF19D16394ECD007D2B6CF03
:10207000E9D018E008E01FD1B1CF0FD16394E2D0CE
:1020800016D3ACCFDFD000E00FD6B0CF0BD6102FD9
:10209000D9D03ED1A3CFD6D026D198D558E0B4D54B
:1020A000E7E2F1E020E070D585D401E006D684D4E3
:1020B000CBD404E102D600E02092A801B8D496CF98
:1020C000ECE2F1E01BE7EED501931A95E1F7BAD007
:1020D0008DCFE8D5A0E0E6D5902FE4D5802FB2D003
:1020E00006E485CF88E0DED58A95E9F7ABD0DFD06E
:1020F00075CFA8D00BD011F0DAD001C0D6D05AD409
:1021000006E0DBD562D47DD5F0D068CF34D43497E7
:10211000019111910E7F1F700E531040089592D0BF
:1021200013E27DD413E37BD44DD446D480D45ECF68
:1021300089D067D500E875D411E300E873D413E3C0
:1021400000E870D413E300E86DD41270D9F34ECFD9
:10215000A9D5B02EA7D5602F75D05B2D55D546CF0C
:10216000A1D5B02E9FD5402F50E09CD5002309F477
:1021700051E098D5602F413308F036CFE8EBF1E01D
:1021800032D5BB2071F44F938DD50193485010F098
:10219000D9F788D54F9156D0F2904FD54423E1F727
:1021A0000EC050D04F9349D5E1924423E1F74F91AF
:1021B00002917AD5485018F0D9F70AEA75D517D5A3
:1021C00015CF40D08FEF9FEF25B1287048E01A9AC5
:1021D00035B13870231719F04A9511F407CF00C0B4
:1021E00004E20A95F1F7232F019789F760D0F6CE24
:1021F00059D5402F27D056D51FEF00FF2F9800FD4F
:102200002F9A34D54A9521F006951695B1F7F3CF5C
:10221000EDCE48D5402F46D5502F44D5602F12D053
:1022200052FD05C051FFDFD451FDDBD4517050FD8C
:1022300039D5F02E02D50E2D37D54423C1F754FFE2
:10224000D6D4D4CE2FD52ED5003219F00F910F91C0
:10225000CBCE2BC09F918F91682F792FFC01E11B72
:10226000F209EE0FFF1F1591610F721D15911123D9
:1022700031F0011720F0B9F76F937F9308958F9392
:102280009F930895FF91EF91EF93FF93E00FF21D5D
:10229000EE0FFF1F089513E001C015E0C5E0D0E088
:1022A00001D509931A95E1F7089501E4FFC406E406
:1022B000FDC40291F9C4E6DF0591F6D41A95E1F761
:1022C000F6D40895AA55AA464156524E4F4344416A
:1022D00010E003C011E001C012E0209111012117AC
:1022E000089500E003C001E001C002E00093110185
:1022F000089502620270027A027B028102820284E5
:102300000286028702A703A802A902AA02B300005C
:10231000012F12E19FDFCBDFCACF00E01AC006E039
:1023200018C000EC1BC000E819C009E012C008E0AA
:1023300010C008EC13C001E00CC015D40FC01BD3B3
:102340000AE007C00BE005C00CE003C00DE001C0CF
:1023500003E0EEE0F1E0E00FF21D0081A5D4A5CF8F
:102360000162037002810282028606880289028A63
:10237000028B07A009A104A202A302A402A502A63F
:1023800012AB00AC00AD00AE01AF04B002B104B2BC
:1023900002B402B502B602B702B80000012F11E282
:1023A00059DF85CF00E058D0089506E055C009E018
:1023B00053C008E051C0022F00950093100101E0C6
:1023C0004BC001E949C002E947C003E945C02223E7
:1023D00011F420986ACF2898209A67CF2F93C1D301
:1023E0002F911F77222309F01068E6D35ECFB9D36F
:1023F0001061E2D35ACF06E12FC005E12DC008E1FC
:102400002BC007E129C02F93CBD3D0D3AAD32F91D0
:10241000322F3295369537701C7F132B220F220FE7
:10242000220F0370022BC8D340CF3FCF01E114D05D
:1024300020E0AAC302E110C003E10ED021E0A4C352
:1024400004E10AC00AE108C009E106C00DE104C0C8
:102450000CE102C00BE100C0EEE0F1E0E00FF21D84
:10246000208323CF012035221A30019007A011B01C
:102470002BB10BB211B303B402B50000052D003B24
:1024800028F426DF91F0003981F002C025DF61F0E9
:10249000052D0F6E003A11F407E006D407E004D4CE
:1024A0006A94B1F704D40895ACD3052D16E2D2DEB8
:1024B000FECE48D3A8D3892D982D02D3882029F5A4
:1024C000092D0036C8F4003268F4023018F00B51C0
:1024D000E0F001C00B5FECEAF1E0E00FF21DEAD2A0
:1024E000008117C00F3521F00052ECE2F1E00BC083
:1024F000E1D20091B3010DC07091A601772329F0BC
:102500000056ECE4F1E096D011F0E1D202C0D2D254
:1025100000E0CAD39FD091F613D389C0B8D1B09050
:10252000140171D3182D9DD21B2D1D5FB7D2192D0B
:1025300098D21B2D1E5FB2D211E093D21B2DAED2CA
:102540001B2D1F5FAED2B0D385D061F7ADD16FC068
:102550009FCF292D2F700ED39AD07CD0D1F767C092
:1025600052D307D0032FA0D3022F9ED373D0C9F725
:102570005EC000D030E020E0182D092D40E24ED39F
:10258000089502E04ED26CD057E03ED30091140182
:102590000F31A1F051E027D34AE04FD344E1062D9B
:1025A000013009F440E149D30E2D7ED346D30E2DE0
:1025B0007BD359D099F71BD324D339C051E005D030
:1025C00004D051D0E1F71DD332C00DD348E035D34C
:1025D0000E2D6AD30CD3089503E023D241D012E329
:1025E0001ED213E31CD260D347D0C9F720C004E049
:1025F00018D214E019191370110F110F12631F93E1
:102600000ED21F9111600BD24FD324D091F70FC07F
:1026100003E0902EECCF02E301C006E3B02E08E009
:1026200000D2DAD11B2DF5D13FD314D0D1F700E081
:102630003BD33BCE102F069506950695E00FF21D75
:10264000008121E011FD24E010FD220F12FD2295F2
:102650000223089501E0900E821C721C6A94089572
:10266000BBD1BDD108959394992079F483948820A7
:1026700061F473946A9408959394AED1992029F4E7
:102680008394ADD1882009F473946A9408950F93CC
:10269000012F0AD30F9108D3089501203822243046
:1026A000016007A001B049B114B20FB30000FAD223
:1026B000052D003B28F40CDE79F0003669F002C0ED
:1026C0000BDE49F0052D0F7E003A09F4EBD2EAD279
:1026D0006A94C1F7089595D2052D12E2BBDD0895E5
:1026E00031D291D2892D982DEBD1882039F5092D41
:1026F0000036D8F4003270F4023018F00B51F0F0CC
:1027000001C00B5FECEAF1E0E00FF21DD3D1CAD2B9
:10271000008319C00F3521F00052ECE3F1E00CC04A
:10272000C9D1C0D20093B3010EC07091A601772326
:1027300029F00056E4E7F1E07DDF21F0B3D2102F5D
:10274000D2D101C0B7D186DF81F6B7D1F9D10895D2
:102750009ED0B090140157D2182D83D11B2D1D5F30
:102760009DD1192D7ED11B2D1E5F98D19BD2102F8C
:1027700078D11B2D1F5F92D114E073D11B2D8ED108
:1027800012E06FD11B2D8AD11B2D8BD10270E1F786
:1027900061DF11F789D0089595CF84D2202F217061
:1027A000182D092DF3D108958DCF00E13AD13FD0F6
:1027B000982F9A95092F99210095902205C037D01E
:1027C00090E0980E821C721C4BDF56E01DD20BD29B
:1027D00051E0992339F044E10FEF19D00FEF17D0F2
:1027E0009A95C9F740E16A9419F08A9509F044E195
:1027F0000DD00CD0662011F08823A1F76BE0F7D143
:1028000000D217E3F3D06620D1F608954BD2F02E14
:10281000009114010F3111F010D208954F9348E048
:102820000CD24F91485011F0E2D1DDD10895809142
:102830009F019091A00196958795089501E1F1D0AF
:102840000FDF8091A10104C08091A10115DF29F063
:1028500029D2CAD0D7D08A95C9F713E3C7D066204A
:1028600099F7089500E4DDD01DD2BED0192D1330A4
:1028700038F4110F110F1C701363B8D0EBDEA1F701
:10288000089500E2CED0662463949924EDCFBBD1A5
:10289000E5EBF1E073E0B0901401B3941B2D01D18E
:1028A00001937A95D1F70895AED1E5EBF1E073E0AD
:1028B000B0901401B3941191D4D01B2DEFD07A9520
:1028C000C9F708950091A80100FD089501600093E3
:1028D000A80131D1E9EAF1E001931193219238D1B5
:1028E000A0919C017BE1ECEAF1E08DD1072F1A2F3A
:1028F000D6D03BD1019373957232B8F31FE3D1D098
:102900000093B30108957FD10091A8012092A801FE
:1029100070E0E1EBF1E00FE11191A4D0072F1FE18E
:10292000ADD073957230B8F337977BE1072F1191D3
:1029300099D073957E31D0F30FD165D10FE110910D
:10294000B30190D00FE11FE3AAD08091A90190912B
:10295000AA010A970EE1182F85D00FE1192F82D016
:10296000CBD0A5D00EE11091AF017CD00FE110913A
:10297000B00178D0089551E047D140E250E04ED107
:10298000E8E1F1E001931193219331932295022F15
:102990000F703295307F302B207F12951F70212BC6
:1029A000343909F422500CE1233008F00FE1009390
:1029B0001401089501E001C000E05CE025D141E090
:1029C0002DD1089500E010E002C000E713EA54E0C2
:1029D0001BD140E123D1089513E0092D23C017E056
:1029E000082D20C017E11EC013E11CC0B12E17D066
:1029F0001B2D1D7F14D01B2D12D01B2D10D012703B
:102A0000E1F3089517E30BD017E709D017E307D0D8
:102A100008951F9304D01F91116001D0089500E024
:102A200001C013E24FE051E061E0F9D0089558E0B1
:102A3000EBD057DC47DF95D0107810640770BCD01E
:102A4000089551DC59E0E0D0552493D0067004304D
:102A500031F004E034D15A94C1F758E0D5D041DCCC
:102A600008950CE104D012951F70106E5AC004FB3B
:102A70000295007F212F2F70022B0895F8DF129509
:102A8000110F10F913701C624CC00CE130EBEFDF3A
:102A900030F91295110F1670132B43C00CE138EB6F
:102AA000F6CFF3DF10919C01F9DF5FD0ACC014E9E1
:102AB00009E037C016E901E334C010E000E031C09E
:102AC0000EE1182FCFDF0FE1192FCCDF089511E9A8
:102AD00001EC27D010919C01E1DF47D094C0F0DFDA
:102AE00011E800EC1EC0BDDF13E901EC1AC0B9DF2C
:102AF000E7DF13E800EC15C015E908EA12C01091F1
:102B00009E01112309F408951F93102F0BE1AADFF2
:102B10000CE11F91A7DF0DE110E0A4DF13E808EB43
:102B200000C04091C2014A3009F06DD040E151E04F
:102B300061E075D0089567D040E250E06FD008950D
:102B400080E401C080E20DD01F79182B35D00895A4
:102B500010D0106833D008950CD01F770F7E2ED080
:102B6000089528E007C029E005C02CE003D0012F1C
:102B700008952DE05BE048D045E051E0022F4ED0B3
:102B800045E150E04BD00895019111912F9317D05A
:102B90002F9188E0222309F084E0E3DF182B0CC09A
:102BA000009123011091240122E009C00091250128
:102BB0001091260123E003C028E001C02DE05BE076
:102BC00023D0206145E151E029D008952F9A4ED0BD
:102BD0004DD04CD04BD04AD02F9848D02F9A46D0C9
:102BE00008952F9A43D02F9841D040D008953ED0D9
:102BF000662329F02F983AD06150E8F72F9A36D003
:102C0000089555E001C05AE05093C201F52E44E00A
:102C100051E060E0E6DF11D0EADF089560E0E3DF35
:102C2000F02E0BD00E2DF12E08D01E2DF22E05D039
:102C30002E2DF32E02D03E2DDACFDD24D394EE24B8
:102C4000442311F4089512D0C3B0C3FA0EF4ED2852
:102C500050FDF0FAF694C2F8C5B84A9521F0DD0CA3
:102C600091F704D0089553FD08952F9AA090100174
:102C7000AA2029F4299A000000C029980895AA944E
:102C8000F1F7299AA0901001000000C0AA94E1F782
:102C90002998A0901001AA94F1F708950E94FF1FAF
:102CA0000C94FA1F0C94FB1F0C94FC1FFDDF009189
:102CB000E8000E770093E80008950C94F81F1F9326
:102CC0000A9521F019E01A95F1F7FACF1F9100D07B
:102CD00000C000C000000895FFFFFFFFFFFFFFFFDF
:102CE000FFFFFFFFFFFFFFFFFFFFFFFFFFFFFFFFF4
:102CF000FFFFFFFFFFFFFFFFFFFF5AA5FF060003D7
:102D0000D1C4F4D004E30093120107E2089500084F
:102D10000005060D02020E02102E10121A2526279B
:102D200028292C292C2C2C3100003A3B403C3D3EDC
:102D30003F485A4458646C6E000076787A868892D0
:102D4000949DA6ADB2B7BD00E0043336383900001B
:102D50000D9114E264D609EC01C000EC09930895CA
:102D60007DC68C91A2D68E7F863909F4BFD0089596
:102D70008FC67CD6B9C097D1F1CF0D9140D6E7D0A0
:102D8000209828980D913BD6AFC012961BD116976C
:102D90000D911D91112311F020D2A6C030D6A4C0F0
:102DA000B0C1C0C1D1C1D8C10DD129929DC03D9142
:102DB00009D12992F99298C00FD196C0B3D0BAD058
:102DC00093C0C5D091C01DD18FC04BC279C2BBC2C8
:102DD0009EC2BCC2ABC200E801D320E009C000E241
:102DE00020E0119603C000E42D912370F7D202D3A6
:102DF00050D3008905B90D910395FDD5048505B91A
:102E000026D30993089533E001C03D9104E0E6D252
:102E100024E0231B2370299209D313D3089520E0C3
:102E200008E0DCD2109124010D91E7D2F4CF21E02B
:102E3000F7CF00E2E4E2F1E01D9111930A95E1F78A
:102E400053C02CD351C04BD34FC024E1D8D300E0A2
:102E5000E6D3F3D308F442C00D91D1D500E0D1D32D
:102E600043C050D33BC02BE1CAD3B4D32992A4D3DF
:102E7000A6D3BAD30297D9F737C047D32FC02CE1D6
:102E8000BED3A8D3299298D3AFD30197E1F72CC032
:102E900025E1B5D32D9123702B5F0D91C1D3CDD3F7
:102EA0001DC02AE1ACD32D912370255FBCD315C082
:102EB00026E1A5D3119625E0F0CF2EE1A0D320E1A5
:102EC000B2D30BC029E19BD3A0D32AE0ACD305C079
:102ED0002DE195D39AD32FE0A6D329920993089593
:102EE000E0932001F09321012992089500E006BDAE
:102EF0000091150107BD1FEF00911401077009F43F
:102F000010E0086005BD137414BD279809F0279AD6
:102F1000089500911C01002311F0289801C0289AFF
:102F2000209A089529982A982B9804B10660077F63
:102F300004B9089500911601043038F40370006557
:102F40000CBD0DB50E7F0DBD08952CBC08952CBC95
:102F500004B1097F04B908951090160101C000C0A2
:102F600000C000C000C01A941120C9F708951F9333
:102F700010911601143030F40EBD0DB507FFFDCFD2
:102F80000EB50EC018E0000F10F42A9A01C02A985E
:102F9000E3DF1B990160299ADFDF29981A9599F7D9
:102FA0001F910895E4DF239532130895F02E0895BC
:102FB000FF2420E0042FF6DF052FF4DF062FF2DFD9
:102FC000072FF0CFFF2420E00D91ECDF0D91EADF19
:102FD0000D91E8DF0D91E6CF4D915D917D912992A4
:102FE000452B71F0442319F04A950D9101C000273B
:102FF000BEDF772311F07A95F3CF5A950993F0CF7E
:1030000008952CBC03E0FBD4299AF9D42998F7D46D
:1030100091DF089510911C01112309F4089500E037
:10302000E4D480E090EA20980197D1F11899FCCF80
:1030300039E040E051E213B18FEF90E2019781F166
:1030400023B1212720FFFACF4817590708F0AC0118
:103050003A9589F780E091E2841B950B019701F185
:10306000AC010FEF552331F4403820F400E8413231
:1030700008F400E4B6D319E026E08894CA0110F001
:10308000209A02C020980000019719F0000000C0AB
:10309000FBCF000027951A9589F7209802E0AFD45E
:1030A00001E0A3D40895FD01179633DF0181A7D471
:1030B00039DF0281A4D4AEDF189A209A3BDF028167
:1030C0009ED427DF02819BD4A38036817BDF1497B7
:1030D000332341F01581F11629F093DFAA94A9F763
:1030E00000EC089500E00895319650F4009122011B
:1030F00003950093220100912301006400932301B2
:10310000089540D037D0EE247BD008E0E02E78D070
:10311000EBDF0297C1F78AD0E0932001F093210101
:10312000099308952FD05CD534E00D902992402D5D
:103130005F2F6E2F70E03CDFF992486039DFF99223
:10314000D3DF0297A1F7CCCE15D0EE2459D031961B
:103150000197D9F76BD0C4CE43D50D9034E02992B6
:10316000402D5F2F6E2F70E023DFF992319601978B
:10317000B9F7B6CE35D56D919D907D91AD90BD904E
:10318000129608950091230107FF089506FF089500
:10319000097F009323014DE450E06091220170E02B
:1031A00007CF11971D911F3F21F4092D28D400E06E
:1031B0000895D92C0B2D0E29DADE0F2FD8DE0E2F15
:1031C000D6DE0027D4DE011700E031F0DA9400E803
:1031D00019F001E014D4EECF0895D92C00EFC7DE2A
:1031E0000027C5DE0027C3DE0027C1DE00FB00E0AC
:1031F00036F4DA9401E819F001E001D4EFCF089534
:10320000072F0E29B4DE0F2FB2DE0E2FB0DE0D9188
:10321000AEDE00E061FF03C0092DF1D300E062FFE4
:1032200001C0BFDF63FF01C0D8DF089567FF18C08A
:103230000A2D9DDE009121019ADE0091200197DE8A
:10324000002795DE00EC64FF03C0092DD8D300E011
:1032500065FF03C03197A5DF319666FF01C0BDDF72
:103260000895FD0174DE2092140140DE08B10F7054
:10327000006208B904EF07B908E2B3D2449A0081AA
:10328000BAD300913D0104B925B8DDD003810023F4
:1032900031F0479A0481AFD347980581ACD30281BE
:1032A000A1D00A95E9F745980081A5D344980081FB
:1032B000A2D30091300105B901E09DD32992089570
:1032C000FD01459A449A008196D324B825B82AB8BE
:1032D0002BB8018190D304E007B928B800818BD3C3
:1032E00029920895F1E0E4E20291007809F431971F
:1032F0000291148182D0E032D9F70895F1E0E0E242
:1033000000810F5F0193138178D0D1F308959D91CF
:103310008D9102E063D0E6DF299287D021E089D049
:1033200090D0ECDF0297C9F7299208959D918D9175
:1033300003E054D0D7DF299278D083D0DFDF019724
:10334000D9F729920895689400E102C0E89401E158
:103350009D918D915D914D9141D0C4DF50FF28C06A
:10336000BC015F935695577091E080E039F090E092
:1033700081E05A951AF0880F991FFBCF5F91681B67
:10338000790B18F18F939F9335D0019716F42FD0B6
:10339000019736D0082F092B49F457FF03C038D0C6
:1033A00057D0D0F0ABDF9F918F91E9CFA7DFECCF63
:1033B00021D02ED04DD080F02EF4019718D02AD0F5
:1033C00047D050F09BDF019799F700E056FF04C00B
:1033D0003FD010F000E002D00993089510912C0125
:1033E00015B90BB9469A00C000004698089510918F
:1033F000290102C0109128010D910BB915B9F2CF26
:1034000010913C0115B900C01091310115B9089512
:103410002CE001C02DE03DD0148115B90C940F1A99
:103420000C94111A108115B9089520E02AB81FEFE5
:103430001BB92FD0048905B900C000C009B1099398
:103440000895048505B90FEF2BB80AB908954D9179
:103450004423E1F0042F10E023E02A951AF0000F36
:10346000111FFBCF30913F0121E03A9512F0220F5E
:10347000FCCF3AEF00003A95E9F733B1322331F44B
:1034800001501040B1F701E80894089500E08894D5
:103490000895E4E2F1E0E20FF21D0895FD010381D9
:1034A00000935F0208B10F70006B08B904EF07B911
:1034B0002BB803E00AB925B80091430104B9EDD057
:1034C0004598EBD04798E9D00281DFD00A95E9F71B
:1034D000E4D044980AE093D224B829920895FD01DB
:1034E000449A459A00818BD22AB82BB8018187D2A1
:1034F00004E01091190110FD04E907B928B8008112
:103500007ED20895F09A27E102C0F09828E177D0A2
:1035100061D05D91AD9050FF36C0BC015F93569570
:10352000577091E080E039F090E081E05A951AF010
:10353000880F991FFBCF5F91681B790BA0F18F93C8
:103540009F930D911091270188D01091360101971A
:10355000F09B07C00D91109128017FD0109135018B
:10356000019700E07AD0082F092B11F03DD0E9CF68
:1035700057FF05C025E057D01A2D60D0E0F034D0B9
:103580009F918F91D9CF0D914AD01A2D57D098F095
:10359000F09B06C001970D913DD01A2D4FD058F0E9
:1035A00023D0019781F756FF05C01A2D47D018F098
:1035B00000E027D000E0089510912C0102C0109186
:1035C0002D0100E04AD000E020913701122B45D0B8
:1035D000099308959D918D91F1E0E2E202911581A8
:1035E0003CD0E032D9F70895F1E0E0E200810F5FCE
:1035F0000193202F148131D02223C1F3089549DF94
:1036000000811091240129D008950D911091250178
:1036100024D0089526E0109127011FD004C025E092
:10362000109127011AD035DF00E0108116D000E09C
:1036300020913701122B11D008951D91889400E03C
:10364000112351F001E0DBD1889400E04A9904C0D5
:103650001A95C1F7089401E808951F9348E015D022
:1036600039B107FB30F917FB31F932FB33703BB945
:10367000000F110F0EF401604A9589F706D0589893
:10368000599803D002D01F91089530915F02469A55
:1036900000C046983A95B1F6089501E0B0C15AA528
:1036A000D1040002ADC00EE10093120105E00895BF
:1036B0000D910E3F31F0013009F4D0C109EC0993AE
:1036C00008953D9129920D91315010F42992089559
:1036D000003029F4FD91ED9100810993F4CF013080
:1036E00029F4FD91ED910D910083EDCF023049F465
:1036F000FD91ED910D911D9120812023212B20839F
:10370000E2CF033019F40D9176D1DDCF0430D9F634
:103710000D9167D0D8CF5AA53B00000071C002E3DD
:103720000093120106E0502E089504E71DE13801D0
:1037300088249090110180E090E03324429A839491
:1037400051F4939441F4429A81E080930D012092C8
:1037500001010C940000429A0AE043D04298E7D25B
:103760001ED469F311D4CDD0332049F342989BD0B5
:10377000DFCF5AA52D00000F552490910D018F70B9
:1037800070E0EDEBFBE1EE0FFF1F389715912591EF
:103790001A35A9F4253A99F4259135911591159189
:1037A000F695E795E21BF30B813069F3811759F722
:1037B0000995602E77246E0E7F1E7395E4CF3496A4
:1037C000E0931E01F0931F01772321F491E8909379
:1037D0000D01089590930D01552011F0F301099406
:1037E00008951F930A9521F019E01A95F1F7FACF81
:1037F0001F9100D000C000C0000008955AA5BCCFA2
:10380000F89422242FBE0FEF0DBF12E01EBF01E07F
:10381000ECD0E33511F4FA3C19F080E0E3E5FAEC82
:103820000FEF12E0A0E084FDADE0B1E0A017B1071A
:103830002D92E0F3429A3A9A449A3C98349906C001
:1038400083954298349BFECF429A8068E0EFF1E086
:10385000CDE0D1E0D7D131960993CD31D8F388238B
:1038600011F480910D0180930D01E82FEF7085FD1B
:1038700009C0429AEE2331F0EA95C0D03A9A4298B4
:10388000BDD0F7CF86FF03D287FF0C94000068D02D
:1038900080E090E03324429A77D333D03320E1F3B1
:1038A000429801D0F5CFA4E4B1E01596ED01442093
:1038B00029F000EB099301EC099309C021960C91C2
:1038C0000F3F19F411966AD002C0F3010995E4E4A0
:1038D000F1E0CE018E1B9F0B05979283838300E05E
:1038E00011910127EC17FD07D9F700830696E4E450
:1038F000F1E0019166D30197E1F7F9D180E090E022
:1039000008954026FC01EC5BFE4F00830196863053
:10391000920570F08A179B0719F401E0302E1DC044
:1039200006EE80170EEF900710F089E191E0089500
:10393000813021F40B3189F4402E0895823079F0E2
:10394000833011F4B02F0895843019F4A02F169607
:103950000895853011F40E3011F080E090E0089564
:1039600016D0349704E71DE138018F708E3049F08E
:10397000059115910A3529F4153A19F4F695E7954C
:103980000995089500911E0110911F010895E0E02E
:10399000F8E3E0931E01F0931F0108950D910030AC
:1039A00049F429928D9180658F9391DF8F91FAEC84
:1039B000E3E526CF013029F4299200910D01099306
:1039C0000895023021F4299204E009930895033008
:1039D00021F4D8DF099319930895043019F4D7DF3F
:1039E0002992089509EC0993089510E81093610055
:1039F000009361000895002311F4089506E90F93E0
:103A00001F932F9318E221E300002A95E9F71A95F6
:103A1000D1F70A95B9F72F911F910F9108959F91B2
:103A20008F91FC01E11BF209EE0FFF1F059015902D
:103A3000112061F0001950F0011518F0E10DF21D90
:103A4000F5CFE00FF21DC895800D921D8F939F93C7
:103A50000895000853544B3530305F320AE0E2E5F8
:103A6000FAE3159119930A95E1F70895E0E2F1E080
:103A70000D91006403830D9102830D9101830D91DB
:103A8000008308952992EEE0F1E00F70E00F0895B1
:103A90000D91102F107F103921F00E7F003851F555
:103AA0000CE9F0DF0081099308950D91102F107F2C
:103AB000103901F5E7DF0D91008308950008000536
:103AC000060702020802101E0B0B0B1014252D0A0C
:103AD000350A354D4F6000610B0B0B0C14222D0B7A
:103AE000410B3F54560B0000E8940D911AE197DF0B
:103AF00009EC01C000EC09930895B0CFD6CFC8CF30
:103B0000B5DF6CC029926AC07D916D9112968DC00F
:103B10007D916D91179689C063D02992EE0FFF1F9A
:103B200080D000E008F4059109930197C9F7F69554
:103B3000E79553C055D0129602C052D017961D91EA
:103B400067D031960197D9F748C04AD029925AD008
:103B5000099331960197D9F740C06894E0E0119637
:103B60000D9103FDE1600D9103FDE26006C0F3E0FD
:103B700001C0FD91E4E0EF1BE370F0E009E007BF56
:103B8000C8952992099256F1089510E001C011E0FC
:103B9000FD010381689404C010E001C011E00D91A3
:103BA000000F010FE02FF0E001E207BFC895E9CF59
:103BB000A1CF16D0933AE1F7082F0178C9F731D099
:103BC00040F41AD003E007BFE895E058FF4F8A950C
:103BD000B1F712D001E107BFE89509D02992089505
:103BE0009D918D91E0912001F09121010895E09344
:103BF0002001F0932101089507B700FDFDCFF99949
:103C0000FECF0895F9DFF2BDE1BDF89A00B5089541
:103C1000F9DF011719F010BDFA9AF99AF999FECF58
:103C20000895B0DEE017F10708956894DBDF0E2FEA
:103C30000F7319F000EC09930895EE0FFF1FF1DFE9
:103C4000C8F780E890E0681B790BA0F309F4E894CA
:103C5000EF93FF930D901D90CFDF01E007BFE89534
:103C600032960297B9F7F695E795C1DFFF91EF918C
:103C7000C3DF03E007BFE895BFDF05E007BFE895B6
:103C8000BBDF01E107BFE8958EF2299208952092EB
:103C9000630000E20093D80000E80093D80000938E
:103CA000D80006E009BD09B500FFFDCF2092E00075
:103CB0001F932092E90000E010E202D01F910895C6
:103CC0002F9321E02093EB000093EC0012601093FF
:103CD000ED002F9108950091E800077F0093E80020
:103CE00008950091E8000E7F0093E8000895009188
:103CF000E8000E770093E80008950091E8000B7744
:103D00000093E80008950091E8000B7F0093E8001D
:103D100008950091E80000FFFCCF08950091E800AD
:103D200002FFFCCF08950091E8000072089522245C
:103D30002092E9000091E80003FD10D00091E1001D
:103D400003FF089507EF0093E100B2DF01E0009365
:103D5000EA002092EA002092000108951F932F9319
:103D60003F93EF93FF93CFDF1091F1000091F100AB
:103D7000103821F4063011F49CD05EC01030A9F444
:103D8000053049F41091F100A6DFABDFC2DF106807
:103D90001093E30051C0093041F40091F100009309
:103DA000000199DF9EDFCCD047C02091F100309117
:103DB000F100113251F5003281F4E2E0F1E08BDFE5
:103DC000ADDF07E01091F10011930A95D9F795DF67
:103DD00088DF9FDF01E036D02FC0023251F47BDF55
:103DE00080DFE9E0F1E02193319393DF02E02AD014
:103DF00023C0033251F46FDF74DFEBE0F1E0219375
:103E0000319387DF04E01ED017C0113A79F40132F4
:103E100069F4E2E0F1E05FDF07E011911093F10057
:103E20000A95D9F75EDF75DF68DF06C00091EB0009
:103E300000620093EB004FDFFF91EF913F912F91D4
:103E40001F91089510910101102B10930101089505
:103E50001201000202000020EB03182000100101F3
:103E600001010902430002010080A00904000001D1
:103E700002020100052400100105240103010424AD
:103E800002060524060001070581031000FF09044E
:103E90000100020A00000007058302200000070558
:103EA0000402200000000403090408035500320046
:103EB00053001091F1000091F100013021F402E172
:103EC000E0E5FEE316C0023021F403E4E2E6FEE39F
:103ED00010C0033061F4103021F404E0E6EAFEE3A0
:103EE00008C0113021F408E0EAEAFEE302C000E075
:103EF00008952091F1003091F1002091F10030916E
:103F0000F100102FE8DE012F0217230608F0022F20
:103F1000202F222371F0FDDE30E0222341F03032E9
:103F200031F0339505910093F1002A95F6CFD9DE53
:103F3000F0CF1F7111F4EDDED4DEE5DE01E008956F
:103F4000F0E0E9EE01E0008301EC10E1B9DE03E00E
:103F5000008301E814E2B4DE04E0008300E814E228
:103F6000AFDEEAEE0AE100832082089500910D01A0
:103F7000013841F4329A09E142DD349BFBCF429A89
:103F8000882783CC08950000D2DE349BEFDF07D072
:103F9000D9F30091F1000F9309D00F91089500918A
:103FA0000001002361F004E00093E9000091E800C3
:103FB00002FF05C005FF02C0989408959EDE189484
:103FC00008951F93102F00910001002351F003E08A
:103FD0000093E900A8DEF1F31093F100A4DE09F4E8
:103FE00086DE1F91089587BFE8950895FECCF9CB32
:103FF00002CD15CDD4CFC8CFE4CFB0CEA3CE97CECF
:00000001FF
