:107000000C94AA3EFFFFFFFFFFFFFFFFFFFFFFFF04
:10701000FFFFFFFFFFFFFFFFFFFFFFFFFFFFFFFF80
:10702000FFFFFFFFFFFFFFFFFFFFFFFF0C94783D17
:10703000FFFFFF12010002FF010020EB03F02F0011
:10704000000102000109021200010100803209045E
:10705000000000000000000C03410054004D0045FA
:10706000004C001E03410054006D00650067006184
:107070000033003200550032002000440046005525
:1070800000040309041B010C0100000C000001A214
:107090007FFF12BD01BDF89A00B5089501E0089583
:1070A000F999FECF12BD01BD20BDFA9AF99AF6CF2B
:1070B000F999FECF0C944938F80104910895F8012C
:1070C00014913196FACF0091610000930C0100E811
:1070D0000093610001E00093610001E005BF02E060
:1070E00005BF0E947D380895E3E6F0E000810E7F41
:1070F00000830E94543E01E008950E94703D0E946A
:10710000763DFDCF79D00F77008300810068008342
:10711000089572D0006200833DD009B500FFFDCF15
:107120006BD00F7D0083E0EE00810E7F0083008135
:107130000B7F00830E94493BE2EE5FD00160008339
:107140000081086000837894089500910D01002368
:1071500021F401E000930D01DCDFE3E2F2E00081C5
:10716000018100FF0DC0008111811E7F118300830A
:1071700001E00093EA0000E00093EA00009322029D
:1071800000E00093E9000091E80003FF02C00E94C4
:10719000BF3B089500E00E94893E00E0009381001B
:1071A0000093800010E0009385000093840001E0CC
:1071B00006BBE1E822D003600083E2E600810460C0
:1071C0000083008103FFFDCF178F0E94543EE2E64B
:1071D00014D008600083F08322A133A1F78FF68FCB
:1071E000F3A3F2A301E006BB2D3D354010F006E00D
:1071F00001C002E009BD0895E8EDF0E000810895C6
:107200000E94CA3E239747D1F093090125D20481F9
:107210001581012B51F43ED100910701002309F49F
:10722000C7C000E000930701C3C0AAD102FFFDCF91
:10723000018500930601018500930F0101850093EC
:107240001001018500931101018500931201018550
:107250000093130100910A01209113013091120152
:107260004091110150911001109106011A9541F0C1
:107270001250B9F01A95B9F11A9509F47DC096C06B
:1072800010910F01113021F411E010930B0102C095
:10729000F0930B0196D00C3F11F417D188C077D131
:1072A00086C08FD010910F01112329F01A9549F053
:1072B0001A95A9F07CC0F0930B010C3F09F077C040
:1072C000ECCF54D103C04AD109F471C00D911C9187
:1072D00042D10F3FC1F305E00093090168C011E0FE
:1072E00010930B01EACFD2D031F0025009F440C024
:1072F0000A9541F05CC0F9D00E94BE3F0FEF0093A9
:107300000A0155C0552319F05A9589F050C001E083
:1073100005BFF5BF0DEF04BF65D032D103FFFDCF30
:1073200063D04AD05DD000E00E946A3EFFCF01E00A
:1073300005BFF5BF57D024D103FFFDCF55D050D0A6
:107340003BD00FEF1FE004C009811A8101501040AB
:1073500009831A8309811A81012BB1F700E8009390
:10736000610000910C01009361000C940000FFCFBC
:1073700001E000930B011BC089D019F00A9541F080
:1073800016C05350A0F4B1D002E0009308010FC022
:10739000505339F05A9541F05F52A9F35A9599F339
:1073A00006C002E00883EFCF01E0FCCF9ED072D090
:1073B0002396E4E00C94D73E09B50D7F09BDF9BDD5
:1073C00008955093010140930001309303012093ED
:1073D000020110811B7F108310811F771083089595
:1073E000E8ED09C082D056C06DD054D0F894E0EEDC
:1073F000C8D0016002C000810F77008308952197F3
:107400004AD000910601035019F00250B9F00BC0A8
:107410003DD021F00A9559F00A9529F400910A010E
:107420000C3F19F452D02196089563D0FCCF0091FF
:10743000010101870091000101870AC0109110012C
:1074400025D019F00A9539F0EECF135008F4F187E2
:1074500021D048D0E8CF105339F01A9539F01F5297
:1074600041F01A9541F0F4CF08E5E6CF00E006D0F0
:10747000EFCF02E0FCCF04E001D0EACF10E020E043
:1074800030E00E94403F0093F100089500910F0109
:107490000023089522C00ED009D008D00093040123
:1074A00009D000930501E8EEF0E00CC008830091DC
:1074B000F10008830091F1000895EBEE62D00062C4
:1074C0000083E8EE0081077F98CFF7DF02E00093AA
:1074D000080103E000930901089556D0008100FFE0
:1074E000FDCF08954DD002FFFDCF00810B7F0083BB
:1074F00082CF0E94C93E3AD006C02DD00093F10041
:107500002DD059F441D0082F092BA9F039D002FD14
:1075100012C0008100FFFDCF4424042D43940032AB
:1075200089F300910B0100230D911C9131F3119708
:107530000E945838E3CF24D000FFFDCF00810E7F9A
:107540000083008100FFFDCF008102FFFDCFCDDF72
:10755000E5E00C94D63E11970C945C380D911C918B
:107560000F5F1F4F1C930E930197089575D0828172
:10757000938100811181801B910B0196DF01089599
:10758000E8EEF0E000810895FBDF0E7F36CF0E9429
:10759000C63E62D080819181A081B181AF710481AA
:1075A000158100521040048315830AC000910B011D
:1075B000002331F4A301920103E911E00E94563F38
:1075C0004ED0D8F1662477242C0114C073DFF30168
:1075D000ED56FE4F008301E0600E00E0701E019644
:1075E0000091F200002311F03AD0D8F4C9DF0B7FEC
:1075F000008301DF34D0D0F2F301B096E238F040DE
:10760000A8F60091E80002FFFCCF0091F20024D020
:1076100024813581201B304024833583E1CF4ADF2C
:10762000AA95AA23E1F700910B01013079F6209188
:10763000F1008C010E945038D2CF04811581012BBA
:1076400021F09EDF02FFFDCF50DF9EDF008100FFB3
:10765000FDCFE8E00C94D33EE0E0F1E00895FCDFDC
:1076600002811381081719070895EBEEF0E02081DD
:1076700021602083018302810270012B0283EDEEE1
:10768000008102600083EEEE0081000F00E0001F29
:10769000089500E009D000FD05C0F093E90010E274
:1076A00002E0E3CF00E008950093E900EBEEF0E0A4
:1076B000008108950F770132B9F5112379F11A95F8
:1076C00059F01A9561F01A9569F01A9509F11A9511
:1076D000D1F01A95E9F026C00E94003922C00E941C
:1076E000FF391FC026D000910901018701E0018701
:1076F000F187F187009108010187F1870E946D3AB7
:107700000E94723A0EC015D000910801018707C08F
:1077100002E00093080100E0009309010AD00E94F2
:107720006D3A03C00E945D3A02C001E0089500E096
:107730000895E8EEF0E00081077F008308950330AC
:10774000E9F4112329F01A9549F01A9589F016C029
:1077500004E00093190201E810E705C00CE0009373
:10776000190207E510E7E7E1F2E000831183DDCFBE
:107770000EE10093190203E610E7F5CFD8CF9A93F4
:107780008A93AAD10B7F00838091F1009091F10040
:10779000092F992349F10A9509F1025011F102507C
:1077A000A9F00A9549F0025069F00A9599F00A95F6
:1077B000F1F00A9501F124C0803811F54ED0002374
:1077C00079F51EC08038E1F4C2D02AC08823C1F404
:1077D0002AD026C08823A1F437D0F1CF082F26D194
:1077E000EECF082FF7D0EBCF082FCBD0E8CF8138E2
:1077F00039F450D1E4CF813019F45CD1002381F405
:107800008C010E945A3B002359F4EBEE66D10062D2
:107810000083E8EE0081077F008301E000931A02F5
:10782000899199910895D3D00091E30000781F7752
:10783000012B0093E3009CD0A1D0008100FFFDCF7D
:10784000E3EE0081006898C0C2D0123008F02AC16F
:107850008FD01093220292D02BC10E94CA3E229751
:1078600080E0B5D0E0D0202F2A9519F02A95E9F0D4
:1078700022C002E10093190203E310E7E7E1F2E01E
:1078800000831183D0D0CFD0CED00883CCD0098351
:107890006FD00091190210E0288139810217130777
:1078A00080F40F7181F481E00EC002E100931902AF
:1078B00005E410E7E3CF0E949F3B002319F700E0A7
:1078C00042C02093190200810F7E0083A7E1B2E03D
:1078D00001C054D000911902002311F1008104FD70
:1078E0001FC0008100FD03C0008104FFFACF10E03B
:1078F000012F1395003289F0ED91FC9111970491BD
:107900000093F1002D913C912F5F3F4F3C932E93BC
:10791000FD0102810A95028359F7DED004FFD9CF19
:10792000813039F4008104FD04C0008100FFFDCFE7
:1079300025D0008104FFFDCF00810F7E00830081F0
:107940000B7F008301E02296E4E00C94D73E10D038
:1079500000912202018712D000810F7700830081FD
:1079600002FFFDCF00810B7F008300810F7704C0F1
:10797000E8EEF0E00081077F0083089500810E7F2C
:10798000FBCF25D024D02091F100005829F00A9592
:1079900089F00A9589F019C0EBDF00912102018777
:1079A00000E00093F100E8EEF0E0E8DF008102FF84
:1079B000FDCF7DC079D0F4CFDBDF2F77E22FE65EFD
:1079C000FD4F00810093F100EBCF6CC02CD01091E3
:1079D000F1000895002319F0025019F001C023D0DE
:1079E00061C0F4DF0023E1F71ED00F7749F4EBEE1E
:1079F000F0E0108110621083E8EE1081177F108391
:107A00000093E900EBEEF0E0108110FD02C03AD0E7
:107A1000E7CF10811062108335D021E0E02FE65EC1
:107A2000FD4F208332C00091F1000895002319F02A
:107A3000025019F001C0F7DF35C0C8DF0023E1F7BD
:107A40002091F1002F772093E900EBEE46D000FD66
:107A500002C018D0F1CF79F0008100610083422F7D
:107A600001E010E00E94BC3E0093EA00F093EA00BF
:107A700000810860008300E005D0E22FE65EFD4F44
:107A8000008303C0F093E900089572DF00810E7F48
:107A900000830EC019D031F407D070DF008102FFDF
:107AA000FDCF05C000E0089563DFF18708955ADF38
:107AB00001E0089509D009F0F5CF5ADFF1835EDFC8
:107AC000008100FFFDCFF4CFAEDFADDF1091F100FC
:107AD0001091F10000230895E8EEF0E00081089590
:107AE000E3E6C1D00E7F00830C9482380C94A53855
:107AF0008A93FA93EA933A922A921A920A927A9382
:107B00006A935A934A933A932A931A930A938FB794
:107B1000A9D002FF05C0AAD002FF02C00BEF9CD083
:107B200099D000FF1BC0A2D000FF18C001E0009355
:107B30000E010FEE91D09DD0006289D00EEF8CD057
:107B4000E2EE91D000618CD00F7D0083E8ED0081E2
:107B50000062008309B50D7F09BDF9BD7BD004FF2C
:107B600045C084D004FF42C009B500FD05C00E9495
:107B7000CA3809B500FFFDCFE8ED75D00F7D008351
:107B80000FEE018700910E01002381F16FD067D0C5
:107B9000086001C00FEE00835DD004FDFBCF02E062
:107BA0006DD060D002FD06C0008105FD03C00081DC
:107BB00003FF0CC05BD00F7E5BD0006448D0E2EEC8
:107BC00052D001604DD04BD008600FC0008104FD41
:107BD0002DC0EBEF00810F7D43D0006841D00F7BBB
:107BE0003FD00F73008342D00F7E008333D005FF58
:107BF00010C03CD005FF0DC000E000930E010081D5
:107C00000F7E00830FED28D000810F7D31D00068FA
:107C10001ED028D003FF0AC029D003FF07C007EFFA
:107C20001BD00E94493B25D0116011D08FBF099114
:107C300019912991399149915991699179910990B5
:107C4000199029903990E991F991899118951183AA
:107C500000830895E1EE08C00093E10008950062FA
:107C6000008302C0E1EEF0E000810895E2EEFCCF77
:107C70000083E3E2F2E00081118108950CC02081CD
:107C800031812F5F3F4F2083318320813181243F19
:107C90003140A8F30A95002331F020E0E5E2F2E05C
:107CA00020832183F2CF0895107800E00FF403952C
:107CB00000FB17F900E000F9F89407EF04BFA8955E
:107CC00008E10093600000E000936000112309F0D8
:107CD00078940895107820E00FF4239520FB17F98D
:107CE00020E020F9F89403FB1EF420E230E002C00B
:107CF00020E030E00770202B022F0860F894A89550
:107D000028E12093600000936000112309F078942B
:107D10000895107820E00FF4239520FB17F920E058
:107D200020F903FB1EF420E230E002C020E030E046
:107D30000770202B022F0064F894A89528E1209367
:107D4000600000936000112309F07894089500000A
:107D50008895FECF06E60DBF02E00EBFC7EED2E06B
:107D60000E947438002311F00E94EE3E0E94633896
:107D70000E94A73E0C94A73E4A951AF0000F111FCF
:107D8000FBCF0895BA92AA929A928A927A926A92B4
:107D90005A924A92BA93AA939A938A930895BB846B
:107DA000AA84998488847F806E805D804C80BB81AA
:107DB000AA8199818881F0E0EC0FFD1FEF01089501
:107DC00020E006D0E9F70895259102D0E9F708955B
:107DD0002D9301501040202F212B089585E890E726
:107DE000FC0105911491FC013296A591B491FC011E
:107DF000349625913491422F432B19F0F901E4DF99
:107E000001C0DEDF069610E78139910748F3089537
:107E10002F930CD02F9101D0089542D0F12FE02F55
:107E200045E047BFE8953CD012D0089539D0F12FF6
:107E3000E02F43E047BFE89533D0089531D0F12FCC
:107E4000E02F43E047BFE8952BD001D0089528D01C
:107E500041E147BFE89524C0F32FE22F012E102EF9
:107E600041E047BFE8951CC01BD0002E29E027BF8A
:107E7000E89516C0022E27B726FDFCCF202D0895C9
:107E80000FD0F12FE02F41E247BFC895002D08C069
:107E900007D0F12FE02F49E047BFC895002D00C063
:107EA000022E27B720FDFCCF202D08950E94C23E50
:107EB00022974801C901DA0110C05BD001E0A00E91
:107EC00000E0B01E00E4A01600E0B00608F440C0D8
:107ED000830120E030E00E940D3F0A2F0B2B09F4B4
:107EE00040C0082F0F7710E02C01401A510A3201D0
:107EF00000E4A02E03C00A2F0B2BE1F04816590610
:107F000080F0F40101914F010983119729F001914B
:107F10004F010883119711C0F20131960491088333
:107F20000CC0F201049109833196E817F907A1F713
:107F3000F401EDCF1BD008831983920108811981C8
:107F40000E942C3F16D0AA94B1F62301AA24BB2488
:107F50000DD0312F0F3F3F4F09F4AFCF83011DD01C
:107F6000B7CF01E02296ECE00C94CF3E82010C9456
:107F70005F3802E0400E00E0501E08959A938A9305
:107F800080E090E08C0109D080589F4F8F3F0FE632
:107F90009007C0F389919991089520E030E00C9406
:107FA000163F00000000000000000000FC00FFFF82
:107FB000FFFFFFFFFFFFFFFFFFFFFFFFFFFFFFFFD1
:107FC000FFFFFFFFFFFFFFFFFFFFFFFFFFFFFFFFC1
:107FD000FFFFFFFFFFFFFFFFFFFFFFFFFFFFFFFFB1
:107FE000FFFFFFFF0C94083F0C94403F0C94483F68
:107FF0000C942C3F0C940D3F0C941E3F0C94343F7A
:00000001FF
